{
  "_format": "hh-sol-artifact-1",
  "contractName": "FakeOFT",
  "sourceName": "contracts/test/FakeOFT.sol",
  "abi": [
    {
      "inputs": [
        {
          "internalType": "string",
          "name": "_name",
          "type": "string"
        },
        {
          "internalType": "string",
          "name": "_symbol",
          "type": "string"
        },
        {
          "internalType": "address",
          "name": "_layerZeroEndpoint",
          "type": "address"
        }
      ],
      "stateMutability": "nonpayable",
      "type": "constructor"
    },
    {
      "anonymous": false,
      "inputs": [
        {
          "indexed": true,
          "internalType": "address",
          "name": "owner",
          "type": "address"
        },
        {
          "indexed": true,
          "internalType": "address",
          "name": "spender",
          "type": "address"
        },
        {
          "indexed": false,
          "internalType": "uint256",
          "name": "value",
          "type": "uint256"
        }
      ],
      "name": "Approval",
      "type": "event"
    },
    {
      "anonymous": false,
      "inputs": [
        {
          "indexed": false,
          "internalType": "uint16",
          "name": "_srcChainId",
          "type": "uint16"
        },
        {
          "indexed": false,
          "internalType": "bytes",
          "name": "_srcAddress",
          "type": "bytes"
        },
        {
          "indexed": false,
          "internalType": "uint64",
          "name": "_nonce",
          "type": "uint64"
        },
        {
          "indexed": false,
          "internalType": "bytes",
          "name": "_payload",
          "type": "bytes"
        },
        {
          "indexed": false,
          "internalType": "bytes",
          "name": "_reason",
          "type": "bytes"
        }
      ],
      "name": "MessageFailed",
      "type": "event"
    },
    {
      "anonymous": false,
      "inputs": [
        {
          "indexed": true,
          "internalType": "address",
          "name": "previousOwner",
          "type": "address"
        },
        {
          "indexed": true,
          "internalType": "address",
          "name": "newOwner",
          "type": "address"
        }
      ],
      "name": "OwnershipTransferred",
      "type": "event"
    },
    {
      "anonymous": false,
      "inputs": [
        {
          "indexed": true,
          "internalType": "uint16",
          "name": "_srcChainId",
          "type": "uint16"
        },
        {
          "indexed": true,
          "internalType": "address",
          "name": "_to",
          "type": "address"
        },
        {
          "indexed": false,
          "internalType": "uint256",
          "name": "_amount",
          "type": "uint256"
        }
      ],
      "name": "ReceiveFromChain",
      "type": "event"
    },
    {
      "anonymous": false,
      "inputs": [
        {
          "indexed": false,
          "internalType": "uint16",
          "name": "_srcChainId",
          "type": "uint16"
        },
        {
          "indexed": false,
          "internalType": "bytes",
          "name": "_srcAddress",
          "type": "bytes"
        },
        {
          "indexed": false,
          "internalType": "uint64",
          "name": "_nonce",
          "type": "uint64"
        },
        {
          "indexed": false,
          "internalType": "bytes32",
          "name": "_payloadHash",
          "type": "bytes32"
        }
      ],
      "name": "RetryMessageSuccess",
      "type": "event"
    },
    {
      "anonymous": false,
      "inputs": [
        {
          "indexed": true,
          "internalType": "uint16",
          "name": "_dstChainId",
          "type": "uint16"
        },
        {
          "indexed": true,
          "internalType": "address",
          "name": "_from",
          "type": "address"
        },
        {
          "indexed": false,
          "internalType": "bytes",
          "name": "_toAddress",
          "type": "bytes"
        },
        {
          "indexed": false,
          "internalType": "uint256",
          "name": "_amount",
          "type": "uint256"
        }
      ],
      "name": "SendToChain",
      "type": "event"
    },
    {
      "anonymous": false,
      "inputs": [
        {
          "indexed": false,
          "internalType": "uint16",
          "name": "_dstChainId",
          "type": "uint16"
        },
        {
          "indexed": false,
          "internalType": "uint16",
          "name": "_type",
          "type": "uint16"
        },
        {
          "indexed": false,
          "internalType": "uint256",
          "name": "_minDstGas",
          "type": "uint256"
        }
      ],
      "name": "SetMinDstGas",
      "type": "event"
    },
    {
      "anonymous": false,
      "inputs": [
        {
          "indexed": false,
          "internalType": "address",
          "name": "precrime",
          "type": "address"
        }
      ],
      "name": "SetPrecrime",
      "type": "event"
    },
    {
      "anonymous": false,
      "inputs": [
        {
          "indexed": false,
          "internalType": "uint16",
          "name": "_remoteChainId",
          "type": "uint16"
        },
        {
          "indexed": false,
          "internalType": "bytes",
          "name": "_path",
          "type": "bytes"
        }
      ],
      "name": "SetTrustedRemote",
      "type": "event"
    },
    {
      "anonymous": false,
      "inputs": [
        {
          "indexed": false,
          "internalType": "uint16",
          "name": "_remoteChainId",
          "type": "uint16"
        },
        {
          "indexed": false,
          "internalType": "bytes",
          "name": "_remoteAddress",
          "type": "bytes"
        }
      ],
      "name": "SetTrustedRemoteAddress",
      "type": "event"
    },
    {
      "anonymous": false,
      "inputs": [
        {
          "indexed": false,
          "internalType": "bool",
          "name": "_useCustomAdapterParams",
          "type": "bool"
        }
      ],
      "name": "SetUseCustomAdapterParams",
      "type": "event"
    },
    {
      "anonymous": false,
      "inputs": [
        {
          "indexed": true,
          "internalType": "address",
          "name": "from",
          "type": "address"
        },
        {
          "indexed": true,
          "internalType": "address",
          "name": "to",
          "type": "address"
        },
        {
          "indexed": false,
          "internalType": "uint256",
          "name": "value",
          "type": "uint256"
        }
      ],
      "name": "Transfer",
      "type": "event"
    },
    {
      "inputs": [],
      "name": "DEFAULT_PAYLOAD_SIZE_LIMIT",
      "outputs": [
        {
          "internalType": "uint256",
          "name": "",
          "type": "uint256"
        }
      ],
      "stateMutability": "view",
      "type": "function"
    },
    {
      "inputs": [],
      "name": "NO_EXTRA_GAS",
      "outputs": [
        {
          "internalType": "uint256",
          "name": "",
          "type": "uint256"
        }
      ],
      "stateMutability": "view",
      "type": "function"
    },
    {
      "inputs": [],
      "name": "PT_SEND",
      "outputs": [
        {
          "internalType": "uint16",
          "name": "",
          "type": "uint16"
        }
      ],
      "stateMutability": "view",
      "type": "function"
    },
    {
      "inputs": [
        {
          "internalType": "address",
          "name": "owner",
          "type": "address"
        },
        {
          "internalType": "address",
          "name": "spender",
          "type": "address"
        }
      ],
      "name": "allowance",
      "outputs": [
        {
          "internalType": "uint256",
          "name": "",
          "type": "uint256"
        }
      ],
      "stateMutability": "view",
      "type": "function"
    },
    {
      "inputs": [
        {
          "internalType": "address",
          "name": "spender",
          "type": "address"
        },
        {
          "internalType": "uint256",
          "name": "amount",
          "type": "uint256"
        }
      ],
      "name": "approve",
      "outputs": [
        {
          "internalType": "bool",
          "name": "",
          "type": "bool"
        }
      ],
      "stateMutability": "nonpayable",
      "type": "function"
    },
    {
      "inputs": [
        {
          "internalType": "address",
          "name": "account",
          "type": "address"
        }
      ],
      "name": "balanceOf",
      "outputs": [
        {
          "internalType": "uint256",
          "name": "",
          "type": "uint256"
        }
      ],
      "stateMutability": "view",
      "type": "function"
    },
    {
      "inputs": [
        {
          "internalType": "address",
          "name": "account",
          "type": "address"
        },
        {
          "internalType": "uint256",
          "name": "amount",
          "type": "uint256"
        }
      ],
      "name": "burn",
      "outputs": [],
      "stateMutability": "nonpayable",
      "type": "function"
    },
    {
      "inputs": [],
      "name": "circulatingSupply",
      "outputs": [
        {
          "internalType": "uint256",
          "name": "",
          "type": "uint256"
        }
      ],
      "stateMutability": "view",
      "type": "function"
    },
    {
      "inputs": [],
      "name": "decimals",
      "outputs": [
        {
          "internalType": "uint8",
          "name": "",
          "type": "uint8"
        }
      ],
      "stateMutability": "view",
      "type": "function"
    },
    {
      "inputs": [
        {
          "internalType": "address",
          "name": "spender",
          "type": "address"
        },
        {
          "internalType": "uint256",
          "name": "subtractedValue",
          "type": "uint256"
        }
      ],
      "name": "decreaseAllowance",
      "outputs": [
        {
          "internalType": "bool",
          "name": "",
          "type": "bool"
        }
      ],
      "stateMutability": "nonpayable",
      "type": "function"
    },
    {
      "inputs": [
        {
          "internalType": "uint16",
          "name": "_dstChainId",
          "type": "uint16"
        },
        {
          "internalType": "bytes",
          "name": "_toAddress",
          "type": "bytes"
        },
        {
          "internalType": "uint256",
          "name": "_amount",
          "type": "uint256"
        },
        {
          "internalType": "bool",
          "name": "_useZro",
          "type": "bool"
        },
        {
          "internalType": "bytes",
          "name": "_adapterParams",
          "type": "bytes"
        }
      ],
      "name": "estimateSendFee",
      "outputs": [
        {
          "internalType": "uint256",
          "name": "nativeFee",
          "type": "uint256"
        },
        {
          "internalType": "uint256",
          "name": "zroFee",
          "type": "uint256"
        }
      ],
      "stateMutability": "view",
      "type": "function"
    },
    {
      "inputs": [
        {
          "internalType": "uint16",
          "name": "",
          "type": "uint16"
        },
        {
          "internalType": "bytes",
          "name": "",
          "type": "bytes"
        },
        {
          "internalType": "uint64",
          "name": "",
          "type": "uint64"
        }
      ],
      "name": "failedMessages",
      "outputs": [
        {
          "internalType": "bytes32",
          "name": "",
          "type": "bytes32"
        }
      ],
      "stateMutability": "view",
      "type": "function"
    },
    {
      "inputs": [
        {
          "internalType": "uint16",
          "name": "_srcChainId",
          "type": "uint16"
        },
        {
          "internalType": "bytes",
          "name": "_srcAddress",
          "type": "bytes"
        }
      ],
      "name": "forceResumeReceive",
      "outputs": [],
      "stateMutability": "nonpayable",
      "type": "function"
    },
    {
      "inputs": [
        {
          "internalType": "uint16",
          "name": "_version",
          "type": "uint16"
        },
        {
          "internalType": "uint16",
          "name": "_chainId",
          "type": "uint16"
        },
        {
          "internalType": "address",
          "name": "",
          "type": "address"
        },
        {
          "internalType": "uint256",
          "name": "_configType",
          "type": "uint256"
        }
      ],
      "name": "getConfig",
      "outputs": [
        {
          "internalType": "bytes",
          "name": "",
          "type": "bytes"
        }
      ],
      "stateMutability": "view",
      "type": "function"
    },
    {
      "inputs": [
        {
          "internalType": "uint16",
          "name": "_remoteChainId",
          "type": "uint16"
        }
      ],
      "name": "getTrustedRemoteAddress",
      "outputs": [
        {
          "internalType": "bytes",
          "name": "",
          "type": "bytes"
        }
      ],
      "stateMutability": "view",
      "type": "function"
    },
    {
      "inputs": [
        {
          "internalType": "address",
          "name": "spender",
          "type": "address"
        },
        {
          "internalType": "uint256",
          "name": "addedValue",
          "type": "uint256"
        }
      ],
      "name": "increaseAllowance",
      "outputs": [
        {
          "internalType": "bool",
          "name": "",
          "type": "bool"
        }
      ],
      "stateMutability": "nonpayable",
      "type": "function"
    },
    {
      "inputs": [
        {
          "internalType": "uint16",
          "name": "_srcChainId",
          "type": "uint16"
        },
        {
          "internalType": "bytes",
          "name": "_srcAddress",
          "type": "bytes"
        }
      ],
      "name": "isTrustedRemote",
      "outputs": [
        {
          "internalType": "bool",
          "name": "",
          "type": "bool"
        }
      ],
      "stateMutability": "view",
      "type": "function"
    },
    {
      "inputs": [],
      "name": "lzEndpoint",
      "outputs": [
        {
          "internalType": "contract ILayerZeroEndpoint",
          "name": "",
          "type": "address"
        }
      ],
      "stateMutability": "view",
      "type": "function"
    },
    {
      "inputs": [
        {
          "internalType": "uint16",
          "name": "_srcChainId",
          "type": "uint16"
        },
        {
          "internalType": "bytes",
          "name": "_srcAddress",
          "type": "bytes"
        },
        {
          "internalType": "uint64",
          "name": "_nonce",
          "type": "uint64"
        },
        {
          "internalType": "bytes",
          "name": "_payload",
          "type": "bytes"
        }
      ],
      "name": "lzReceive",
      "outputs": [],
      "stateMutability": "nonpayable",
      "type": "function"
    },
    {
      "inputs": [
        {
          "internalType": "uint16",
          "name": "",
          "type": "uint16"
        },
        {
          "internalType": "uint16",
          "name": "",
          "type": "uint16"
        }
      ],
      "name": "minDstGasLookup",
      "outputs": [
        {
          "internalType": "uint256",
          "name": "",
          "type": "uint256"
        }
      ],
      "stateMutability": "view",
      "type": "function"
    },
    {
      "inputs": [
        {
          "internalType": "address",
          "name": "to",
          "type": "address"
        },
        {
          "internalType": "uint256",
          "name": "amount",
          "type": "uint256"
        }
      ],
      "name": "mint",
      "outputs": [],
      "stateMutability": "nonpayable",
      "type": "function"
    },
    {
      "inputs": [],
      "name": "name",
      "outputs": [
        {
          "internalType": "string",
          "name": "",
          "type": "string"
        }
      ],
      "stateMutability": "view",
      "type": "function"
    },
    {
      "inputs": [
        {
          "internalType": "uint16",
          "name": "_srcChainId",
          "type": "uint16"
        },
        {
          "internalType": "bytes",
          "name": "_srcAddress",
          "type": "bytes"
        },
        {
          "internalType": "uint64",
          "name": "_nonce",
          "type": "uint64"
        },
        {
          "internalType": "bytes",
          "name": "_payload",
          "type": "bytes"
        }
      ],
      "name": "nonblockingLzReceive",
      "outputs": [],
      "stateMutability": "nonpayable",
      "type": "function"
    },
    {
      "inputs": [],
      "name": "owner",
      "outputs": [
        {
          "internalType": "address",
          "name": "",
          "type": "address"
        }
      ],
      "stateMutability": "view",
      "type": "function"
    },
    {
      "inputs": [
        {
          "internalType": "uint16",
          "name": "",
          "type": "uint16"
        }
      ],
      "name": "payloadSizeLimitLookup",
      "outputs": [
        {
          "internalType": "uint256",
          "name": "",
          "type": "uint256"
        }
      ],
      "stateMutability": "view",
      "type": "function"
    },
    {
      "inputs": [],
      "name": "precrime",
      "outputs": [
        {
          "internalType": "address",
          "name": "",
          "type": "address"
        }
      ],
      "stateMutability": "view",
      "type": "function"
    },
    {
      "inputs": [],
      "name": "renounceOwnership",
      "outputs": [],
      "stateMutability": "nonpayable",
      "type": "function"
    },
    {
      "inputs": [
        {
          "internalType": "uint16",
          "name": "_srcChainId",
          "type": "uint16"
        },
        {
          "internalType": "bytes",
          "name": "_srcAddress",
          "type": "bytes"
        },
        {
          "internalType": "uint64",
          "name": "_nonce",
          "type": "uint64"
        },
        {
          "internalType": "bytes",
          "name": "_payload",
          "type": "bytes"
        }
      ],
      "name": "retryMessage",
      "outputs": [],
      "stateMutability": "payable",
      "type": "function"
    },
    {
      "inputs": [
        {
          "internalType": "address",
          "name": "_from",
          "type": "address"
        },
        {
          "internalType": "uint16",
          "name": "_dstChainId",
          "type": "uint16"
        },
        {
          "internalType": "bytes",
          "name": "_toAddress",
          "type": "bytes"
        },
        {
          "internalType": "uint256",
          "name": "_amount",
          "type": "uint256"
        },
        {
          "internalType": "address payable",
          "name": "_refundAddress",
          "type": "address"
        },
        {
          "internalType": "address",
          "name": "_zroPaymentAddress",
          "type": "address"
        },
        {
          "internalType": "bytes",
          "name": "_adapterParams",
          "type": "bytes"
        }
      ],
      "name": "sendFrom",
      "outputs": [],
      "stateMutability": "payable",
      "type": "function"
    },
    {
      "inputs": [
        {
          "internalType": "uint16",
          "name": "_version",
          "type": "uint16"
        },
        {
          "internalType": "uint16",
          "name": "_chainId",
          "type": "uint16"
        },
        {
          "internalType": "uint256",
          "name": "_configType",
          "type": "uint256"
        },
        {
          "internalType": "bytes",
          "name": "_config",
          "type": "bytes"
        }
      ],
      "name": "setConfig",
      "outputs": [],
      "stateMutability": "nonpayable",
      "type": "function"
    },
    {
      "inputs": [
        {
          "internalType": "uint16",
          "name": "_dstChainId",
          "type": "uint16"
        },
        {
          "internalType": "uint16",
          "name": "_packetType",
          "type": "uint16"
        },
        {
          "internalType": "uint256",
          "name": "_minGas",
          "type": "uint256"
        }
      ],
      "name": "setMinDstGas",
      "outputs": [],
      "stateMutability": "nonpayable",
      "type": "function"
    },
    {
      "inputs": [
        {
          "internalType": "uint16",
          "name": "_dstChainId",
          "type": "uint16"
        },
        {
          "internalType": "uint256",
          "name": "_size",
          "type": "uint256"
        }
      ],
      "name": "setPayloadSizeLimit",
      "outputs": [],
      "stateMutability": "nonpayable",
      "type": "function"
    },
    {
      "inputs": [
        {
          "internalType": "address",
          "name": "_precrime",
          "type": "address"
        }
      ],
      "name": "setPrecrime",
      "outputs": [],
      "stateMutability": "nonpayable",
      "type": "function"
    },
    {
      "inputs": [
        {
          "internalType": "uint16",
          "name": "_version",
          "type": "uint16"
        }
      ],
      "name": "setReceiveVersion",
      "outputs": [],
      "stateMutability": "nonpayable",
      "type": "function"
    },
    {
      "inputs": [
        {
          "internalType": "uint16",
          "name": "_version",
          "type": "uint16"
        }
      ],
      "name": "setSendVersion",
      "outputs": [],
      "stateMutability": "nonpayable",
      "type": "function"
    },
    {
      "inputs": [
        {
          "internalType": "uint16",
          "name": "_remoteChainId",
          "type": "uint16"
        },
        {
          "internalType": "bytes",
          "name": "_path",
          "type": "bytes"
        }
      ],
      "name": "setTrustedRemote",
      "outputs": [],
      "stateMutability": "nonpayable",
      "type": "function"
    },
    {
      "inputs": [
        {
          "internalType": "uint16",
          "name": "_remoteChainId",
          "type": "uint16"
        },
        {
          "internalType": "bytes",
          "name": "_remoteAddress",
          "type": "bytes"
        }
      ],
      "name": "setTrustedRemoteAddress",
      "outputs": [],
      "stateMutability": "nonpayable",
      "type": "function"
    },
    {
      "inputs": [
        {
          "internalType": "bool",
          "name": "_useCustomAdapterParams",
          "type": "bool"
        }
      ],
      "name": "setUseCustomAdapterParams",
      "outputs": [],
      "stateMutability": "nonpayable",
      "type": "function"
    },
    {
      "inputs": [
        {
          "internalType": "bytes4",
          "name": "interfaceId",
          "type": "bytes4"
        }
      ],
      "name": "supportsInterface",
      "outputs": [
        {
          "internalType": "bool",
          "name": "",
          "type": "bool"
        }
      ],
      "stateMutability": "view",
      "type": "function"
    },
    {
      "inputs": [],
      "name": "symbol",
      "outputs": [
        {
          "internalType": "string",
          "name": "",
          "type": "string"
        }
      ],
      "stateMutability": "view",
      "type": "function"
    },
    {
      "inputs": [],
      "name": "token",
      "outputs": [
        {
          "internalType": "address",
          "name": "",
          "type": "address"
        }
      ],
      "stateMutability": "view",
      "type": "function"
    },
    {
      "inputs": [],
      "name": "totalSupply",
      "outputs": [
        {
          "internalType": "uint256",
          "name": "",
          "type": "uint256"
        }
      ],
      "stateMutability": "view",
      "type": "function"
    },
    {
      "inputs": [
        {
          "internalType": "address",
          "name": "to",
          "type": "address"
        },
        {
          "internalType": "uint256",
          "name": "amount",
          "type": "uint256"
        }
      ],
      "name": "transfer",
      "outputs": [
        {
          "internalType": "bool",
          "name": "",
          "type": "bool"
        }
      ],
      "stateMutability": "nonpayable",
      "type": "function"
    },
    {
      "inputs": [
        {
          "internalType": "address",
          "name": "from",
          "type": "address"
        },
        {
          "internalType": "address",
          "name": "to",
          "type": "address"
        },
        {
          "internalType": "uint256",
          "name": "amount",
          "type": "uint256"
        }
      ],
      "name": "transferFrom",
      "outputs": [
        {
          "internalType": "bool",
          "name": "",
          "type": "bool"
        }
      ],
      "stateMutability": "nonpayable",
      "type": "function"
    },
    {
      "inputs": [
        {
          "internalType": "address",
          "name": "newOwner",
          "type": "address"
        }
      ],
      "name": "transferOwnership",
      "outputs": [],
      "stateMutability": "nonpayable",
      "type": "function"
    },
    {
      "inputs": [
        {
          "internalType": "uint16",
          "name": "",
          "type": "uint16"
        }
      ],
      "name": "trustedRemoteLookup",
      "outputs": [
        {
          "internalType": "bytes",
          "name": "",
          "type": "bytes"
        }
      ],
      "stateMutability": "view",
      "type": "function"
    },
    {
      "inputs": [],
      "name": "useCustomAdapterParams",
      "outputs": [
        {
          "internalType": "bool",
          "name": "",
          "type": "bool"
        }
      ],
      "stateMutability": "view",
      "type": "function"
    }
  ],
  "bytecode": "0x60a06040523480156200001157600080fd5b506040516200449738038062004497833981016040819052620000349162000197565b8282828282828080620000473362000082565b6001600160a01b031660805250600a9050620000648382620002b3565b50600b620000738282620002b3565b5050505050505050506200037f565b600080546001600160a01b038381166001600160a01b0319831681178455604051919092169283917f8be0079c531659141344cd1fd0a4f28419497f9722a3daafe3b4186f6b6457e09190a35050565b634e487b7160e01b600052604160045260246000fd5b600082601f830112620000fa57600080fd5b81516001600160401b0380821115620001175762000117620000d2565b604051601f8301601f19908116603f01168101908282118183101715620001425762000142620000d2565b816040528381526020925086838588010111156200015f57600080fd5b600091505b8382101562000183578582018301518183018401529082019062000164565b600093810190920192909252949350505050565b600080600060608486031215620001ad57600080fd5b83516001600160401b0380821115620001c557600080fd5b620001d387838801620000e8565b94506020860151915080821115620001ea57600080fd5b50620001f986828701620000e8565b604086015190935090506001600160a01b03811681146200021957600080fd5b809150509250925092565b600181811c908216806200023957607f821691505b6020821081036200025a57634e487b7160e01b600052602260045260246000fd5b50919050565b601f821115620002ae57600081815260208120601f850160051c81016020861015620002895750805b601f850160051c820191505b81811015620002aa5782815560010162000295565b5050505b505050565b81516001600160401b03811115620002cf57620002cf620000d2565b620002e781620002e0845462000224565b8462000260565b602080601f8311600181146200031f5760008415620003065750858301515b600019600386901b1c1916600185901b178555620002aa565b600085815260208120601f198616915b8281101562000350578886015182559484019460019091019084016200032f565b50858210156200036f5787850151600019600388901b60f8161c191681555b5050505050600190811b01905550565b6080516140c4620003d360003960008181610806015281816109b401528181610d8d01528181610e7301528181610f620152818161115d015281816117aa01528181611d2d0152612e1b01526140c46000f3fe6080604052600436106103075760003560e01c80637533d7881161019a578063baf3292d116100e1578063eab45d9c1161008a578063f2fde38b11610064578063f2fde38b1461095e578063f5ecbdbc1461097e578063fc0c546a1461099e57600080fd5b8063eab45d9c14610904578063eb8d72b714610924578063ed629c5c1461094457600080fd5b8063d1deba1f116100bb578063d1deba1f1461087e578063dd62ed3e14610891578063df2a5b3b146108e457600080fd5b8063baf3292d14610828578063c446183414610848578063cbed8b9c1461085e57600080fd5b80639dc29fac11610143578063a6c3d1651161011d578063a6c3d165146107b4578063a9059cbb146107d4578063b353aaa7146107f457600080fd5b80639dc29fac146107545780639f38369a14610774578063a457c2d71461079457600080fd5b80639358928b116101745780639358928b146106fd578063950c8a741461071257806395d89b411461073f57600080fd5b80637533d788146106595780638cfd8f5c146106795780638da5cb5b146106b157600080fd5b8063395093511161025e5780634c42899a1161020757806366ad5c8a116101e157806366ad5c8a146105e157806370a0823114610601578063715018a61461064457600080fd5b80634c42899a14610557578063519056361461057f5780635b8c41e61461059257600080fd5b806340c10f191161023857806340c10f191461050257806342d65a8d14610522578063447705151461054257600080fd5b806339509351146104955780633d8b38f6146104b55780633f1f4fa4146104d557600080fd5b80630df37483116102c057806323b872dd1161029a57806323b872dd146104245780632a205e3d14610444578063313ce5671461047957600080fd5b80630df37483146103c557806310ddb137146103e557806318160ddd1461040557600080fd5b806306fdde03116102f157806306fdde031461036357806307e0db1714610385578063095ea7b3146103a557600080fd5b80621d35671461030c57806301ffc9a71461032e575b600080fd5b34801561031857600080fd5b5061032c61032736600461325b565b6109b1565b005b34801561033a57600080fd5b5061034e6103493660046132f1565b610c3a565b60405190151581526020015b60405180910390f35b34801561036f57600080fd5b50610378610cc1565b60405161035a91906133a1565b34801561039157600080fd5b5061032c6103a03660046133b4565b610d53565b3480156103b157600080fd5b5061034e6103c03660046133f3565b610e02565b3480156103d157600080fd5b5061032c6103e036600461341f565b610e1a565b3480156103f157600080fd5b5061032c6104003660046133b4565b610e39565b34801561041157600080fd5b506009545b60405190815260200161035a565b34801561043057600080fd5b5061034e61043f36600461343d565b610eb7565b34801561045057600080fd5b5061046461045f36600461348e565b610edb565b6040805192835260208301919091520161035a565b34801561048557600080fd5b506040516012815260200161035a565b3480156104a157600080fd5b5061034e6104b03660046133f3565b610ff2565b3480156104c157600080fd5b5061034e6104d036600461352e565b61103e565b3480156104e157600080fd5b506104166104f03660046133b4565b60036020526000908152604090205481565b34801561050e57600080fd5b5061032c61051d3660046133f3565b61110a565b34801561052e57600080fd5b5061032c61053d36600461352e565b611118565b34801561054e57600080fd5b50610416600081565b34801561056357600080fd5b5061056c600081565b60405161ffff909116815260200161035a565b61032c61058d366004613583565b6111c4565b34801561059e57600080fd5b506104166105ad366004613711565b6005602090815260009384526040808520845180860184018051928152908401958401959095209452929052825290205481565b3480156105ed57600080fd5b5061032c6105fc36600461325b565b611249565b34801561060d57600080fd5b5061041661061c3660046137b4565b73ffffffffffffffffffffffffffffffffffffffff1660009081526007602052604090205490565b34801561065057600080fd5b5061032c611356565b34801561066557600080fd5b506103786106743660046133b4565b61136a565b34801561068557600080fd5b506104166106943660046137d1565b600260209081526000928352604080842090915290825290205481565b3480156106bd57600080fd5b5060005473ffffffffffffffffffffffffffffffffffffffff165b60405173ffffffffffffffffffffffffffffffffffffffff909116815260200161035a565b34801561070957600080fd5b50610416611404565b34801561071e57600080fd5b506004546106d89073ffffffffffffffffffffffffffffffffffffffff1681565b34801561074b57600080fd5b50610378611414565b34801561076057600080fd5b5061032c61076f3660046133f3565b611423565b34801561078057600080fd5b5061037861078f3660046133b4565b61142d565b3480156107a057600080fd5b5061034e6107af3660046133f3565b61155d565b3480156107c057600080fd5b5061032c6107cf36600461352e565b61162e565b3480156107e057600080fd5b5061034e6107ef3660046133f3565b6116d5565b34801561080057600080fd5b506106d87f000000000000000000000000000000000000000000000000000000000000000081565b34801561083457600080fd5b5061032c6108433660046137b4565b6116e3565b34801561085457600080fd5b5061041661271081565b34801561086a57600080fd5b5061032c61087936600461380a565b611765565b61032c61088c36600461325b565b611815565b34801561089d57600080fd5b506104166108ac36600461387d565b73ffffffffffffffffffffffffffffffffffffffff918216600090815260086020908152604080832093909416825291909152205490565b3480156108f057600080fd5b5061032c6108ff3660046138ab565b611a97565b34801561091057600080fd5b5061032c61091f3660046138db565b611b6b565b34801561093057600080fd5b5061032c61093f36600461352e565b611bd2565b34801561095057600080fd5b5060065461034e9060ff1681565b34801561096a57600080fd5b5061032c6109793660046137b4565b611c2c565b34801561098a57600080fd5b506103786109993660046138f6565b611ce3565b3480156109aa57600080fd5b50306106d8565b337f000000000000000000000000000000000000000000000000000000000000000073ffffffffffffffffffffffffffffffffffffffff1614610a55576040517f08c379a000000000000000000000000000000000000000000000000000000000815260206004820152601e60248201527f4c7a4170703a20696e76616c696420656e64706f696e742063616c6c6572000060448201526064015b60405180910390fd5b61ffff861660009081526001602052604081208054610a7390613947565b80601f0160208091040260200160405190810160405280929190818152602001828054610a9f90613947565b8015610aec5780601f10610ac157610100808354040283529160200191610aec565b820191906000526020600020905b815481529060010190602001808311610acf57829003601f168201915b50505050509050805186869050148015610b07575060008151115b8015610b2f575080516020820120604051610b25908890889061399a565b6040518091039020145b610bbb576040517f08c379a000000000000000000000000000000000000000000000000000000000815260206004820152602660248201527f4c7a4170703a20696e76616c696420736f757263652073656e64696e6720636f60448201527f6e747261637400000000000000000000000000000000000000000000000000006064820152608401610a4c565b610c318787878080601f01602080910402602001604051908101604052809392919081815260200183838082843760009201919091525050604080516020601f8a018190048102820181019092528881528a935091508890889081908401838280828437600092019190915250611dd892505050565b50505050505050565b60007fffffffff0000000000000000000000000000000000000000000000000000000082161580610cac57507fffffffff0000000000000000000000000000000000000000000000000000000082167f36372b0700000000000000000000000000000000000000000000000000000000145b80610cbb5750610cbb82611e9c565b92915050565b6060600a8054610cd090613947565b80601f0160208091040260200160405190810160405280929190818152602001828054610cfc90613947565b8015610d495780601f10610d1e57610100808354040283529160200191610d49565b820191906000526020600020905b815481529060010190602001808311610d2c57829003601f168201915b5050505050905090565b610d5b611f33565b6040517f07e0db1700000000000000000000000000000000000000000000000000000000815261ffff821660048201527f000000000000000000000000000000000000000000000000000000000000000073ffffffffffffffffffffffffffffffffffffffff16906307e0db17906024015b600060405180830381600087803b158015610de757600080fd5b505af1158015610dfb573d6000803e3d6000fd5b5050505050565b600033610e10818585611fb4565b5060019392505050565b610e22611f33565b61ffff909116600090815260036020526040902055565b610e41611f33565b6040517f10ddb13700000000000000000000000000000000000000000000000000000000815261ffff821660048201527f000000000000000000000000000000000000000000000000000000000000000073ffffffffffffffffffffffffffffffffffffffff16906310ddb13790602401610dcd565b600033610ec5858285612168565b610ed085858561223f565b506001949350505050565b600080600080898989604051602001610ef794939291906139f3565b604080517fffffffffffffffffffffffffffffffffffffffffffffffffffffffffffffffe0818403018152908290527f40a7bb10000000000000000000000000000000000000000000000000000000008252915073ffffffffffffffffffffffffffffffffffffffff7f000000000000000000000000000000000000000000000000000000000000000016906340a7bb1090610fa1908d90309086908c908c908c90600401613a22565b6040805180830381865afa158015610fbd573d6000803e3d6000fd5b505050506040513d601f19601f82011682018060405250810190610fe19190613a83565b925092505097509795505050505050565b33600081815260086020908152604080832073ffffffffffffffffffffffffffffffffffffffff87168452909152812054909190610e109082908690611039908790613ad6565b611fb4565b61ffff83166000908152600160205260408120805482919061105f90613947565b80601f016020809104026020016040519081016040528092919081815260200182805461108b90613947565b80156110d85780601f106110ad576101008083540402835291602001916110d8565b820191906000526020600020905b8154815290600101906020018083116110bb57829003601f168201915b5050505050905083836040516110ef92919061399a565b60405180910390208180519060200120149150509392505050565b61111482826124b5565b5050565b611120611f33565b6040517f42d65a8d00000000000000000000000000000000000000000000000000000000815273ffffffffffffffffffffffffffffffffffffffff7f000000000000000000000000000000000000000000000000000000000000000016906342d65a8d9061119690869086908690600401613ae9565b600060405180830381600087803b1580156111b057600080fd5b505af1158015610c31573d6000803e3d6000fd5b61123e898989898080601f01602080910402602001604051908101604052809392919081815260200183838082843760009201919091525050604080516020601f8a018190048102820181019092528881528c93508b92508a918a908a90819084018382808284376000920191909152506125aa92505050565b505050505050505050565b3330146112d8576040517f08c379a000000000000000000000000000000000000000000000000000000000815260206004820152602660248201527f4e6f6e626c6f636b696e674c7a4170703a2063616c6c6572206d75737420626560448201527f204c7a41707000000000000000000000000000000000000000000000000000006064820152608401610a4c565b61134e8686868080601f01602080910402602001604051908101604052809392919081815260200183838082843760009201919091525050604080516020601f89018190048102820181019092528781528993509150879087908190840183828082843760009201919091525061265e92505050565b505050505050565b61135e611f33565b61136860006126df565b565b6001602052600090815260409020805461138390613947565b80601f01602080910402602001604051908101604052809291908181526020018280546113af90613947565b80156113fc5780601f106113d1576101008083540402835291602001916113fc565b820191906000526020600020905b8154815290600101906020018083116113df57829003601f168201915b505050505081565b600061140f60095490565b905090565b6060600b8054610cd090613947565b6111148282612754565b61ffff811660009081526001602052604081208054606092919061145090613947565b80601f016020809104026020016040519081016040528092919081815260200182805461147c90613947565b80156114c95780601f1061149e576101008083540402835291602001916114c9565b820191906000526020600020905b8154815290600101906020018083116114ac57829003601f168201915b50505050509050805160000361153b576040517f08c379a000000000000000000000000000000000000000000000000000000000815260206004820152601d60248201527f4c7a4170703a206e6f20747275737465642070617468207265636f72640000006044820152606401610a4c565b61155660006014835161154e9190613b07565b839190612917565b9392505050565b33600081815260086020908152604080832073ffffffffffffffffffffffffffffffffffffffff8716845290915281205490919083811015611621576040517f08c379a000000000000000000000000000000000000000000000000000000000815260206004820152602560248201527f45524332303a2064656372656173656420616c6c6f77616e63652062656c6f7760448201527f207a65726f0000000000000000000000000000000000000000000000000000006064820152608401610a4c565b610ed08286868403611fb4565b611636611f33565b81813060405160200161164b93929190613b1a565b604080517fffffffffffffffffffffffffffffffffffffffffffffffffffffffffffffffe081840301815291815261ffff85166000908152600160205220906116949082613b99565b507f8c0400cfe2d1199b1a725c78960bcc2a344d869b80590d0f2bd005db15a572ce8383836040516116c893929190613ae9565b60405180910390a1505050565b600033610e1081858561223f565b6116eb611f33565b600480547fffffffffffffffffffffffff00000000000000000000000000000000000000001673ffffffffffffffffffffffffffffffffffffffff83169081179091556040519081527f5db758e995a17ec1ad84bdef7e8c3293a0bd6179bcce400dff5d4c3d87db726b906020015b60405180910390a150565b61176d611f33565b6040517fcbed8b9c00000000000000000000000000000000000000000000000000000000815273ffffffffffffffffffffffffffffffffffffffff7f0000000000000000000000000000000000000000000000000000000000000000169063cbed8b9c906117e79088908890889088908890600401613cb3565b600060405180830381600087803b15801561180157600080fd5b505af115801561123e573d6000803e3d6000fd5b61ffff86166000908152600560205260408082209051611838908890889061399a565b908152604080516020928190038301902067ffffffffffffffff8716600090815292529020549050806118ed576040517f08c379a000000000000000000000000000000000000000000000000000000000815260206004820152602360248201527f4e6f6e626c6f636b696e674c7a4170703a206e6f2073746f726564206d65737360448201527f61676500000000000000000000000000000000000000000000000000000000006064820152608401610a4c565b8083836040516118fe92919061399a565b604051809103902014611993576040517f08c379a000000000000000000000000000000000000000000000000000000000815260206004820152602160248201527f4e6f6e626c6f636b696e674c7a4170703a20696e76616c6964207061796c6f6160448201527f64000000000000000000000000000000000000000000000000000000000000006064820152608401610a4c565b61ffff871660009081526005602052604080822090516119b6908990899061399a565b908152604080516020928190038301812067ffffffffffffffff8916600090815290845282902093909355601f88018290048202830182019052868252611a4f918991899089908190840183828082843760009201919091525050604080516020601f8a018190048102820181019092528881528a93509150889088908190840183828082843760009201919091525061265e92505050565b7fc264d91f3adc5588250e1551f547752ca0cfa8f6b530d243b9f9f4cab10ea8e58787878785604051611a86959493929190613cec565b60405180910390a150505050505050565b611a9f611f33565b60008111611b09576040517f08c379a000000000000000000000000000000000000000000000000000000000815260206004820152601560248201527f4c7a4170703a20696e76616c6964206d696e47617300000000000000000000006044820152606401610a4c565b61ffff83811660008181526002602090815260408083209487168084529482529182902085905581519283528201929092529081018290527f9d5c7c0b934da8fefa9c7760c98383778a12dfbfc0c3b3106518f43fb9508ac0906060016116c8565b611b73611f33565b600680547fffffffffffffffffffffffffffffffffffffffffffffffffffffffffffffff00168215159081179091556040519081527f1584ad594a70cbe1e6515592e1272a987d922b097ead875069cebe8b40c004a49060200161175a565b611bda611f33565b61ffff83166000908152600160205260409020611bf8828483613d28565b507ffa41487ad5d6728f0b19276fa1eddc16558578f5109fc39d2dc33c3230470dab8383836040516116c893929190613ae9565b611c34611f33565b73ffffffffffffffffffffffffffffffffffffffff8116611cd7576040517f08c379a000000000000000000000000000000000000000000000000000000000815260206004820152602660248201527f4f776e61626c653a206e6577206f776e657220697320746865207a65726f206160448201527f64647265737300000000000000000000000000000000000000000000000000006064820152608401610a4c565b611ce0816126df565b50565b6040517ff5ecbdbc00000000000000000000000000000000000000000000000000000000815261ffff808616600483015284166024820152306044820152606481018290526060907f000000000000000000000000000000000000000000000000000000000000000073ffffffffffffffffffffffffffffffffffffffff169063f5ecbdbc90608401600060405180830381865afa158015611d89573d6000803e3d6000fd5b505050506040513d6000823e601f3d9081017fffffffffffffffffffffffffffffffffffffffffffffffffffffffffffffffe0168201604052611dcf9190810190613e8f565b95945050505050565b600080611e865a60966366ad5c8a60e01b89898989604051602401611e009493929190613ec4565b604080517fffffffffffffffffffffffffffffffffffffffffffffffffffffffffffffffe08184030181529190526020810180517bffffffffffffffffffffffffffffffffffffffffffffffffffffffff167fffffffff000000000000000000000000000000000000000000000000000000009093169290921790915230929190612a91565b915091508161134e5761134e8686868685612b1c565b60007fffffffff0000000000000000000000000000000000000000000000000000000082167f14e4ceea000000000000000000000000000000000000000000000000000000001480610cbb57507f01ffc9a7000000000000000000000000000000000000000000000000000000007fffffffff00000000000000000000000000000000000000000000000000000000831614610cbb565b60005473ffffffffffffffffffffffffffffffffffffffff163314611368576040517f08c379a000000000000000000000000000000000000000000000000000000000815260206004820181905260248201527f4f776e61626c653a2063616c6c6572206973206e6f7420746865206f776e65726044820152606401610a4c565b73ffffffffffffffffffffffffffffffffffffffff8316612056576040517f08c379a0000000000000000000000000000000000000000000000000000000008152602060048201526024808201527f45524332303a20617070726f76652066726f6d20746865207a65726f2061646460448201527f72657373000000000000000000000000000000000000000000000000000000006064820152608401610a4c565b73ffffffffffffffffffffffffffffffffffffffff82166120f9576040517f08c379a000000000000000000000000000000000000000000000000000000000815260206004820152602260248201527f45524332303a20617070726f766520746f20746865207a65726f20616464726560448201527f73730000000000000000000000000000000000000000000000000000000000006064820152608401610a4c565b73ffffffffffffffffffffffffffffffffffffffff83811660008181526008602090815260408083209487168084529482529182902085905590518481527f8c5be1e5ebec7d5bd14f71427d1e84f3dd0314c0f7b2291e5b200ac8c7c3b92591015b60405180910390a3505050565b73ffffffffffffffffffffffffffffffffffffffff8381166000908152600860209081526040808320938616835292905220547fffffffffffffffffffffffffffffffffffffffffffffffffffffffffffffffff8114612239578181101561222c576040517f08c379a000000000000000000000000000000000000000000000000000000000815260206004820152601d60248201527f45524332303a20696e73756666696369656e7420616c6c6f77616e63650000006044820152606401610a4c565b6122398484848403611fb4565b50505050565b73ffffffffffffffffffffffffffffffffffffffff83166122e2576040517f08c379a000000000000000000000000000000000000000000000000000000000815260206004820152602560248201527f45524332303a207472616e736665722066726f6d20746865207a65726f20616460448201527f64726573730000000000000000000000000000000000000000000000000000006064820152608401610a4c565b73ffffffffffffffffffffffffffffffffffffffff8216612385576040517f08c379a000000000000000000000000000000000000000000000000000000000815260206004820152602360248201527f45524332303a207472616e7366657220746f20746865207a65726f206164647260448201527f65737300000000000000000000000000000000000000000000000000000000006064820152608401610a4c565b73ffffffffffffffffffffffffffffffffffffffff83166000908152600760205260409020548181101561243b576040517f08c379a000000000000000000000000000000000000000000000000000000000815260206004820152602660248201527f45524332303a207472616e7366657220616d6f756e742065786365656473206260448201527f616c616e636500000000000000000000000000000000000000000000000000006064820152608401610a4c565b73ffffffffffffffffffffffffffffffffffffffff80851660008181526007602052604080822086860390559286168082529083902080548601905591517fddf252ad1be2c89b69c2b068fc378daa952ba7f163c4a11628f55a4df523b3ef906124a89086815260200190565b60405180910390a3612239565b73ffffffffffffffffffffffffffffffffffffffff8216612532576040517f08c379a000000000000000000000000000000000000000000000000000000000815260206004820152601f60248201527f45524332303a206d696e7420746f20746865207a65726f2061646472657373006044820152606401610a4c565b80600960008282546125449190613ad6565b909155505073ffffffffffffffffffffffffffffffffffffffff82166000818152600760209081526040808320805486019055518481527fddf252ad1be2c89b69c2b068fc378daa952ba7f163c4a11628f55a4df523b3ef910160405180910390a35050565b6125b8866000836000612bba565b60006125c688888888612c65565b905060008087836040516020016125df93929190613f03565b60405160208183030381529060405290506125fe888287878734612ca4565b8873ffffffffffffffffffffffffffffffffffffffff168861ffff167f39a4c66499bcf4b56d79f0dde8ed7a9d4925a0df55825206b2b8531e202be0d0898560405161264b929190613f30565b60405180910390a3505050505050505050565b602081015161ffff811661267d5761267885858585612e97565b610dfb565b6040517f08c379a000000000000000000000000000000000000000000000000000000000815260206004820152601c60248201527f4f4654436f72653a20756e6b6e6f776e207061636b65742074797065000000006044820152606401610a4c565b6000805473ffffffffffffffffffffffffffffffffffffffff8381167fffffffffffffffffffffffff0000000000000000000000000000000000000000831681178455604051919092169283917f8be0079c531659141344cd1fd0a4f28419497f9722a3daafe3b4186f6b6457e09190a35050565b73ffffffffffffffffffffffffffffffffffffffff82166127f7576040517f08c379a000000000000000000000000000000000000000000000000000000000815260206004820152602160248201527f45524332303a206275726e2066726f6d20746865207a65726f2061646472657360448201527f73000000000000000000000000000000000000000000000000000000000000006064820152608401610a4c565b73ffffffffffffffffffffffffffffffffffffffff8216600090815260076020526040902054818110156128ad576040517f08c379a000000000000000000000000000000000000000000000000000000000815260206004820152602260248201527f45524332303a206275726e20616d6f756e7420657863656564732062616c616e60448201527f63650000000000000000000000000000000000000000000000000000000000006064820152608401610a4c565b73ffffffffffffffffffffffffffffffffffffffff831660008181526007602090815260408083208686039055600980548790039055518581529192917fddf252ad1be2c89b69c2b068fc378daa952ba7f163c4a11628f55a4df523b3ef910161215b565b505050565b60608161292581601f613ad6565b101561298d576040517f08c379a000000000000000000000000000000000000000000000000000000000815260206004820152600e60248201527f736c6963655f6f766572666c6f770000000000000000000000000000000000006044820152606401610a4c565b6129978284613ad6565b84511015612a01576040517f08c379a000000000000000000000000000000000000000000000000000000000815260206004820152601160248201527f736c6963655f6f75744f66426f756e64730000000000000000000000000000006044820152606401610a4c565b606082158015612a205760405191506000825260208201604052612a88565b6040519150601f8416801560200281840101858101878315602002848b0101015b81831015612a59578051835260209283019201612a41565b5050858452601f017fffffffffffffffffffffffffffffffffffffffffffffffffffffffffffffffe016604052505b50949350505050565b6000606060008060008661ffff1667ffffffffffffffff811115612ab757612ab761364d565b6040519080825280601f01601f191660200182016040528015612ae1576020820181803683370190505b50905060008087516020890160008d8df191503d925086831115612b03578692505b828152826000602083013e909890975095505050505050565b8180519060200120600560008761ffff1661ffff16815260200190815260200160002085604051612b4d9190613f52565b90815260408051918290036020908101832067ffffffffffffffff88166000908152915220919091557fe183f33de2837795525b4792ca4cd60535bd77c53b7e7030060bfcf5734d6b0c90612bab9087908790879087908790613f6e565b60405180910390a15050505050565b60065460ff1615612bd657612bd184848484612f2e565b612239565b815115612239576040517f08c379a000000000000000000000000000000000000000000000000000000000815260206004820152602660248201527f4f4654436f72653a205f61646170746572506172616d73206d7573742062652060448201527f656d7074792e00000000000000000000000000000000000000000000000000006064820152608401610a4c565b60003373ffffffffffffffffffffffffffffffffffffffff86168114612c9057612c90868285612168565b612c9a8684612754565b5090949350505050565b61ffff861660009081526001602052604081208054612cc290613947565b80601f0160208091040260200160405190810160405280929190818152602001828054612cee90613947565b8015612d3b5780601f10612d1057610100808354040283529160200191612d3b565b820191906000526020600020905b815481529060010190602001808311612d1e57829003601f168201915b505050505090508051600003612dd3576040517f08c379a000000000000000000000000000000000000000000000000000000000815260206004820152603060248201527f4c7a4170703a2064657374696e6174696f6e20636861696e206973206e6f742060448201527f61207472757374656420736f75726365000000000000000000000000000000006064820152608401610a4c565b612dde878751613041565b6040517fc580310000000000000000000000000000000000000000000000000000000000815273ffffffffffffffffffffffffffffffffffffffff7f0000000000000000000000000000000000000000000000000000000000000000169063c5803100908490612e5c908b9086908c908c908c908c90600401613fcd565b6000604051808303818588803b158015612e7557600080fd5b505af1158015612e89573d6000803e3d6000fd5b505050505050505050505050565b60008082806020019051810190612eae9190614034565b909350915060009050612ec183826130cc565b9050612ece87828461315c565b91508073ffffffffffffffffffffffffffffffffffffffff168761ffff167fbf551ec93859b170f9b2141bd9298bf3f64322c6f7beb2543a0cb669834118bf84604051612f1d91815260200190565b60405180910390a350505050505050565b6000612f398361316f565b61ffff808716600090815260026020908152604080832093891683529290529081205491925090612f6b908490613ad6565b905060008111612fd7576040517f08c379a000000000000000000000000000000000000000000000000000000000815260206004820152601a60248201527f4c7a4170703a206d696e4761734c696d6974206e6f74207365740000000000006044820152606401610a4c565b8082101561134e576040517f08c379a000000000000000000000000000000000000000000000000000000000815260206004820152601b60248201527f4c7a4170703a20676173206c696d697420697320746f6f206c6f7700000000006044820152606401610a4c565b61ffff82166000908152600360205260408120549081900361306257506127105b80821115612912576040517f08c379a000000000000000000000000000000000000000000000000000000000815260206004820181905260248201527f4c7a4170703a207061796c6f61642073697a6520697320746f6f206c617267656044820152606401610a4c565b60006130d9826014613ad6565b83511015613143576040517f08c379a000000000000000000000000000000000000000000000000000000000815260206004820152601560248201527f746f416464726573735f6f75744f66426f756e647300000000000000000000006044820152606401610a4c565b5001602001516c01000000000000000000000000900490565b600061316883836124b5565b5092915050565b60006022825110156131dd576040517f08c379a000000000000000000000000000000000000000000000000000000000815260206004820152601c60248201527f4c7a4170703a20696e76616c69642061646170746572506172616d73000000006044820152606401610a4c565b506022015190565b61ffff81168114611ce057600080fd5b60008083601f84011261320757600080fd5b50813567ffffffffffffffff81111561321f57600080fd5b60208301915083602082850101111561323757600080fd5b9250929050565b803567ffffffffffffffff8116811461325657600080fd5b919050565b6000806000806000806080878903121561327457600080fd5b863561327f816131e5565b9550602087013567ffffffffffffffff8082111561329c57600080fd5b6132a88a838b016131f5565b90975095508591506132bc60408a0161323e565b945060608901359150808211156132d257600080fd5b506132df89828a016131f5565b979a9699509497509295939492505050565b60006020828403121561330357600080fd5b81357fffffffff000000000000000000000000000000000000000000000000000000008116811461155657600080fd5b60005b8381101561334e578181015183820152602001613336565b50506000910152565b6000815180845261336f816020860160208601613333565b601f017fffffffffffffffffffffffffffffffffffffffffffffffffffffffffffffffe0169290920160200192915050565b6020815260006115566020830184613357565b6000602082840312156133c657600080fd5b8135611556816131e5565b73ffffffffffffffffffffffffffffffffffffffff81168114611ce057600080fd5b6000806040838503121561340657600080fd5b8235613411816133d1565b946020939093013593505050565b6000806040838503121561343257600080fd5b8235613411816131e5565b60008060006060848603121561345257600080fd5b833561345d816133d1565b9250602084013561346d816133d1565b929592945050506040919091013590565b8035801515811461325657600080fd5b600080600080600080600060a0888a0312156134a957600080fd5b87356134b4816131e5565b9650602088013567ffffffffffffffff808211156134d157600080fd5b6134dd8b838c016131f5565b909850965060408a013595508691506134f860608b0161347e565b945060808a013591508082111561350e57600080fd5b5061351b8a828b016131f5565b989b979a50959850939692959293505050565b60008060006040848603121561354357600080fd5b833561354e816131e5565b9250602084013567ffffffffffffffff81111561356a57600080fd5b613576868287016131f5565b9497909650939450505050565b600080600080600080600080600060e08a8c0312156135a157600080fd5b89356135ac816133d1565b985060208a01356135bc816131e5565b975060408a013567ffffffffffffffff808211156135d957600080fd5b6135e58d838e016131f5565b909950975060608c0135965060808c01359150613601826133d1565b90945060a08b013590613613826133d1565b90935060c08b0135908082111561362957600080fd5b506136368c828d016131f5565b915080935050809150509295985092959850929598565b7f4e487b7100000000000000000000000000000000000000000000000000000000600052604160045260246000fd5b604051601f82017fffffffffffffffffffffffffffffffffffffffffffffffffffffffffffffffe016810167ffffffffffffffff811182821017156136c3576136c361364d565b604052919050565b600067ffffffffffffffff8211156136e5576136e561364d565b50601f017fffffffffffffffffffffffffffffffffffffffffffffffffffffffffffffffe01660200190565b60008060006060848603121561372657600080fd5b8335613731816131e5565b9250602084013567ffffffffffffffff81111561374d57600080fd5b8401601f8101861361375e57600080fd5b803561377161376c826136cb565b61367c565b81815287602083850101111561378657600080fd5b816020840160208301376000602083830101528094505050506137ab6040850161323e565b90509250925092565b6000602082840312156137c657600080fd5b8135611556816133d1565b600080604083850312156137e457600080fd5b82356137ef816131e5565b915060208301356137ff816131e5565b809150509250929050565b60008060008060006080868803121561382257600080fd5b853561382d816131e5565b9450602086013561383d816131e5565b935060408601359250606086013567ffffffffffffffff81111561386057600080fd5b61386c888289016131f5565b969995985093965092949392505050565b6000806040838503121561389057600080fd5b823561389b816133d1565b915060208301356137ff816133d1565b6000806000606084860312156138c057600080fd5b83356138cb816131e5565b9250602084013561346d816131e5565b6000602082840312156138ed57600080fd5b6115568261347e565b6000806000806080858703121561390c57600080fd5b8435613917816131e5565b93506020850135613927816131e5565b92506040850135613937816133d1565b9396929550929360600135925050565b600181811c9082168061395b57607f821691505b602082108103613994577f4e487b7100000000000000000000000000000000000000000000000000000000600052602260045260246000fd5b50919050565b8183823760009101908152919050565b8183528181602085013750600060208284010152600060207fffffffffffffffffffffffffffffffffffffffffffffffffffffffffffffffe0601f840116840101905092915050565b61ffff85168152606060208201526000613a116060830185876139aa565b905082604083015295945050505050565b61ffff8716815273ffffffffffffffffffffffffffffffffffffffff8616602082015260a060408201526000613a5b60a0830187613357565b85151560608401528281036080840152613a768185876139aa565b9998505050505050505050565b60008060408385031215613a9657600080fd5b505080516020909101519092909150565b7f4e487b7100000000000000000000000000000000000000000000000000000000600052601160045260246000fd5b80820180821115610cbb57610cbb613aa7565b61ffff84168152604060208201526000611dcf6040830184866139aa565b81810381811115610cbb57610cbb613aa7565b8284823760609190911b7fffffffffffffffffffffffffffffffffffffffff000000000000000000000000169101908152601401919050565b601f82111561291257600081815260208120601f850160051c81016020861015613b7a5750805b601f850160051c820191505b8181101561134e57828155600101613b86565b815167ffffffffffffffff811115613bb357613bb361364d565b613bc781613bc18454613947565b84613b53565b602080601f831160018114613c1a5760008415613be45750858301515b7fffffffffffffffffffffffffffffffffffffffffffffffffffffffffffffffff600386901b1c1916600185901b17855561134e565b6000858152602081207fffffffffffffffffffffffffffffffffffffffffffffffffffffffffffffffe08616915b82811015613c6757888601518255948401946001909101908401613c48565b5085821015613ca357878501517fffffffffffffffffffffffffffffffffffffffffffffffffffffffffffffffff600388901b60f8161c191681555b5050505050600190811b01905550565b600061ffff808816835280871660208401525084604083015260806060830152613ce16080830184866139aa565b979650505050505050565b61ffff86168152608060208201526000613d0a6080830186886139aa565b67ffffffffffffffff94909416604083015250606001529392505050565b67ffffffffffffffff831115613d4057613d4061364d565b613d5483613d4e8354613947565b83613b53565b6000601f841160018114613da65760008515613d705750838201355b7fffffffffffffffffffffffffffffffffffffffffffffffffffffffffffffffff600387901b1c1916600186901b178355610dfb565b6000838152602090207fffffffffffffffffffffffffffffffffffffffffffffffffffffffffffffffe0861690835b82811015613df55786850135825560209485019460019092019101613dd5565b5086821015613e30577fffffffffffffffffffffffffffffffffffffffffffffffffffffffffffffffff60f88860031b161c19848701351681555b505060018560011b0183555050505050565b600082601f830112613e5357600080fd5b8151613e6161376c826136cb565b818152846020838601011115613e7657600080fd5b613e87826020830160208701613333565b949350505050565b600060208284031215613ea157600080fd5b815167ffffffffffffffff811115613eb857600080fd5b613e8784828501613e42565b61ffff85168152608060208201526000613ee16080830186613357565b67ffffffffffffffff851660408401528281036060840152613ce18185613357565b61ffff84168152606060208201526000613f206060830185613357565b9050826040830152949350505050565b604081526000613f436040830185613357565b90508260208301529392505050565b60008251613f64818460208701613333565b9190910192915050565b61ffff8616815260a060208201526000613f8b60a0830187613357565b67ffffffffffffffff861660408401528281036060840152613fad8186613357565b90508281036080840152613fc18185613357565b98975050505050505050565b61ffff8716815260c060208201526000613fea60c0830188613357565b8281036040840152613ffc8188613357565b73ffffffffffffffffffffffffffffffffffffffff87811660608601528616608085015283810360a08501529050613a768185613357565b60008060006060848603121561404957600080fd5b8351614054816131e5565b602085015190935067ffffffffffffffff81111561407157600080fd5b61407d86828701613e42565b92505060408401519050925092509256fea2646970667358221220f4405cfd85c773d69e320aae93e0514a16d1f3999961933e636c0c8e443d6b3764736f6c63430008120033",
  "linkReferences": {},
  "deployedLinkReferences": {}
}