{
  "_format": "hh-sol-artifact-1",
  "contractName": "TcMav",
  "sourceName": "contracts/core/TcMav.sol",
  "abi": [
    {
      "inputs": [
        {
          "internalType": "string",
          "name": "_name",
          "type": "string"
        },
        {
          "internalType": "string",
          "name": "_symbol",
          "type": "string"
        }
      ],
      "stateMutability": "nonpayable",
      "type": "constructor"
    },
    {
      "inputs": [],
      "name": "InvalidAddress",
      "type": "error"
    },
    {
      "inputs": [],
      "name": "InvalidShortString",
      "type": "error"
    },
    {
      "inputs": [],
      "name": "NotMinter",
      "type": "error"
    },
    {
      "inputs": [
        {
          "internalType": "string",
          "name": "str",
          "type": "string"
        }
      ],
      "name": "StringTooLong",
      "type": "error"
    },
    {
      "anonymous": false,
      "inputs": [
        {
          "indexed": true,
          "internalType": "address",
          "name": "owner",
          "type": "address"
        },
        {
          "indexed": true,
          "internalType": "address",
          "name": "spender",
          "type": "address"
        },
        {
          "indexed": false,
          "internalType": "uint256",
          "name": "value",
          "type": "uint256"
        }
      ],
      "name": "Approval",
      "type": "event"
    },
    {
      "anonymous": false,
      "inputs": [],
      "name": "EIP712DomainChanged",
      "type": "event"
    },
    {
      "anonymous": false,
      "inputs": [
        {
          "indexed": true,
          "internalType": "address",
          "name": "account",
          "type": "address"
        },
        {
          "indexed": false,
          "internalType": "bool",
          "name": "canMint",
          "type": "bool"
        }
      ],
      "name": "MinterSet",
      "type": "event"
    },
    {
      "anonymous": false,
      "inputs": [
        {
          "indexed": true,
          "internalType": "address",
          "name": "previousOwner",
          "type": "address"
        },
        {
          "indexed": true,
          "internalType": "address",
          "name": "newOwner",
          "type": "address"
        }
      ],
      "name": "OwnershipTransferred",
      "type": "event"
    },
    {
      "anonymous": false,
      "inputs": [
        {
          "indexed": true,
          "internalType": "address",
          "name": "from",
          "type": "address"
        },
        {
          "indexed": true,
          "internalType": "address",
          "name": "to",
          "type": "address"
        },
        {
          "indexed": false,
          "internalType": "uint256",
          "name": "value",
          "type": "uint256"
        }
      ],
      "name": "Transfer",
      "type": "event"
    },
    {
      "inputs": [],
      "name": "DOMAIN_SEPARATOR",
      "outputs": [
        {
          "internalType": "bytes32",
          "name": "",
          "type": "bytes32"
        }
      ],
      "stateMutability": "view",
      "type": "function"
    },
    {
      "inputs": [
        {
          "internalType": "address",
          "name": "owner",
          "type": "address"
        },
        {
          "internalType": "address",
          "name": "spender",
          "type": "address"
        }
      ],
      "name": "allowance",
      "outputs": [
        {
          "internalType": "uint256",
          "name": "",
          "type": "uint256"
        }
      ],
      "stateMutability": "view",
      "type": "function"
    },
    {
      "inputs": [
        {
          "internalType": "address",
          "name": "spender",
          "type": "address"
        },
        {
          "internalType": "uint256",
          "name": "amount",
          "type": "uint256"
        }
      ],
      "name": "approve",
      "outputs": [
        {
          "internalType": "bool",
          "name": "",
          "type": "bool"
        }
      ],
      "stateMutability": "nonpayable",
      "type": "function"
    },
    {
      "inputs": [
        {
          "internalType": "address",
          "name": "account",
          "type": "address"
        }
      ],
      "name": "balanceOf",
      "outputs": [
        {
          "internalType": "uint256",
          "name": "",
          "type": "uint256"
        }
      ],
      "stateMutability": "view",
      "type": "function"
    },
    {
      "inputs": [
        {
          "internalType": "address",
          "name": "from",
          "type": "address"
        },
        {
          "internalType": "uint256",
          "name": "amount",
          "type": "uint256"
        }
      ],
      "name": "burn",
      "outputs": [],
      "stateMutability": "nonpayable",
      "type": "function"
    },
    {
      "inputs": [],
      "name": "decimals",
      "outputs": [
        {
          "internalType": "uint8",
          "name": "",
          "type": "uint8"
        }
      ],
      "stateMutability": "view",
      "type": "function"
    },
    {
      "inputs": [
        {
          "internalType": "address",
          "name": "spender",
          "type": "address"
        },
        {
          "internalType": "uint256",
          "name": "subtractedValue",
          "type": "uint256"
        }
      ],
      "name": "decreaseAllowance",
      "outputs": [
        {
          "internalType": "bool",
          "name": "",
          "type": "bool"
        }
      ],
      "stateMutability": "nonpayable",
      "type": "function"
    },
    {
      "inputs": [],
      "name": "eip712Domain",
      "outputs": [
        {
          "internalType": "bytes1",
          "name": "fields",
          "type": "bytes1"
        },
        {
          "internalType": "string",
          "name": "name",
          "type": "string"
        },
        {
          "internalType": "string",
          "name": "version",
          "type": "string"
        },
        {
          "internalType": "uint256",
          "name": "chainId",
          "type": "uint256"
        },
        {
          "internalType": "address",
          "name": "verifyingContract",
          "type": "address"
        },
        {
          "internalType": "bytes32",
          "name": "salt",
          "type": "bytes32"
        },
        {
          "internalType": "uint256[]",
          "name": "extensions",
          "type": "uint256[]"
        }
      ],
      "stateMutability": "view",
      "type": "function"
    },
    {
      "inputs": [
        {
          "internalType": "address",
          "name": "spender",
          "type": "address"
        },
        {
          "internalType": "uint256",
          "name": "addedValue",
          "type": "uint256"
        }
      ],
      "name": "increaseAllowance",
      "outputs": [
        {
          "internalType": "bool",
          "name": "",
          "type": "bool"
        }
      ],
      "stateMutability": "nonpayable",
      "type": "function"
    },
    {
      "inputs": [
        {
          "internalType": "address",
          "name": "recipient",
          "type": "address"
        },
        {
          "internalType": "uint256",
          "name": "amount",
          "type": "uint256"
        }
      ],
      "name": "mint",
      "outputs": [],
      "stateMutability": "nonpayable",
      "type": "function"
    },
    {
      "inputs": [
        {
          "internalType": "address",
          "name": "",
          "type": "address"
        }
      ],
      "name": "minters",
      "outputs": [
        {
          "internalType": "bool",
          "name": "",
          "type": "bool"
        }
      ],
      "stateMutability": "view",
      "type": "function"
    },
    {
      "inputs": [],
      "name": "name",
      "outputs": [
        {
          "internalType": "string",
          "name": "",
          "type": "string"
        }
      ],
      "stateMutability": "view",
      "type": "function"
    },
    {
      "inputs": [
        {
          "internalType": "address",
          "name": "owner",
          "type": "address"
        }
      ],
      "name": "nonces",
      "outputs": [
        {
          "internalType": "uint256",
          "name": "",
          "type": "uint256"
        }
      ],
      "stateMutability": "view",
      "type": "function"
    },
    {
      "inputs": [],
      "name": "owner",
      "outputs": [
        {
          "internalType": "address",
          "name": "",
          "type": "address"
        }
      ],
      "stateMutability": "view",
      "type": "function"
    },
    {
      "inputs": [
        {
          "internalType": "address",
          "name": "owner",
          "type": "address"
        },
        {
          "internalType": "address",
          "name": "spender",
          "type": "address"
        },
        {
          "internalType": "uint256",
          "name": "value",
          "type": "uint256"
        },
        {
          "internalType": "uint256",
          "name": "deadline",
          "type": "uint256"
        },
        {
          "internalType": "uint8",
          "name": "v",
          "type": "uint8"
        },
        {
          "internalType": "bytes32",
          "name": "r",
          "type": "bytes32"
        },
        {
          "internalType": "bytes32",
          "name": "s",
          "type": "bytes32"
        }
      ],
      "name": "permit",
      "outputs": [],
      "stateMutability": "nonpayable",
      "type": "function"
    },
    {
      "inputs": [],
      "name": "renounceOwnership",
      "outputs": [],
      "stateMutability": "nonpayable",
      "type": "function"
    },
    {
      "inputs": [
        {
          "internalType": "address",
          "name": "account",
          "type": "address"
        },
        {
          "internalType": "bool",
          "name": "canMint",
          "type": "bool"
        }
      ],
      "name": "setMinter",
      "outputs": [],
      "stateMutability": "nonpayable",
      "type": "function"
    },
    {
      "inputs": [],
      "name": "symbol",
      "outputs": [
        {
          "internalType": "string",
          "name": "",
          "type": "string"
        }
      ],
      "stateMutability": "view",
      "type": "function"
    },
    {
      "inputs": [],
      "name": "totalSupply",
      "outputs": [
        {
          "internalType": "uint256",
          "name": "",
          "type": "uint256"
        }
      ],
      "stateMutability": "view",
      "type": "function"
    },
    {
      "inputs": [
        {
          "internalType": "address",
          "name": "to",
          "type": "address"
        },
        {
          "internalType": "uint256",
          "name": "amount",
          "type": "uint256"
        }
      ],
      "name": "transfer",
      "outputs": [
        {
          "internalType": "bool",
          "name": "",
          "type": "bool"
        }
      ],
      "stateMutability": "nonpayable",
      "type": "function"
    },
    {
      "inputs": [
        {
          "internalType": "address",
          "name": "from",
          "type": "address"
        },
        {
          "internalType": "address",
          "name": "to",
          "type": "address"
        },
        {
          "internalType": "uint256",
          "name": "amount",
          "type": "uint256"
        }
      ],
      "name": "transferFrom",
      "outputs": [
        {
          "internalType": "bool",
          "name": "",
          "type": "bool"
        }
      ],
      "stateMutability": "nonpayable",
      "type": "function"
    },
    {
      "inputs": [
        {
          "internalType": "address",
          "name": "newOwner",
          "type": "address"
        }
      ],
      "name": "transferOwnership",
      "outputs": [],
      "stateMutability": "nonpayable",
      "type": "function"
    }
  ],
  "bytecode": "0x6101606040523480156200001257600080fd5b506040516200249438038062002494833981016040819052620000359162000314565b6040805180820190915260018152603160f81b602082015282908190818460036200006183826200040d565b5060046200007082826200040d565b5050506200008e6005836200015660201b62000aa41790919060201c565b61012052620000ab81600662000156602090811b62000aa417901c565b61014052815160208084019190912060e052815190820120610100524660a0526200013960e05161010051604080517f8b73c3c69bb8fe3d512ecc4cf759cc79239f7b179b0ffacaa9a75d522b39400f60208201529081019290925260608201524660808201523060a082015260009060c00160405160208183030381529060405280519060200120905090565b60805250503060c052506200014e33620001a6565b505062000533565b600060208351101562000176576200016e83620001f8565b9050620001a0565b826200018d836200024460201b62000ad51760201c565b906200019a90826200040d565b5060ff90505b92915050565b600980546001600160a01b038381166001600160a01b0319831681179093556040519116919082907f8be0079c531659141344cd1fd0a4f28419497f9722a3daafe3b4186f6b6457e090600090a35050565b600080829050601f815111156200022f578260405163305a27a960e01b8152600401620002269190620004d9565b60405180910390fd5b80516200023c826200050e565b179392505050565b90565b634e487b7160e01b600052604160045260246000fd5b60005b838110156200027a57818101518382015260200162000260565b50506000910152565b600082601f8301126200029557600080fd5b81516001600160401b0380821115620002b257620002b262000247565b604051601f8301601f19908116603f01168101908282118183101715620002dd57620002dd62000247565b81604052838152866020858801011115620002f757600080fd5b6200030a8460208301602089016200025d565b9695505050505050565b600080604083850312156200032857600080fd5b82516001600160401b03808211156200034057600080fd5b6200034e8683870162000283565b935060208501519150808211156200036557600080fd5b50620003748582860162000283565b9150509250929050565b600181811c908216806200039357607f821691505b602082108103620003b457634e487b7160e01b600052602260045260246000fd5b50919050565b601f8211156200040857600081815260208120601f850160051c81016020861015620003e35750805b601f850160051c820191505b818110156200040457828155600101620003ef565b5050505b505050565b81516001600160401b0381111562000429576200042962000247565b62000441816200043a84546200037e565b84620003ba565b602080601f831160018114620004795760008415620004605750858301515b600019600386901b1c1916600185901b17855562000404565b600085815260208120601f198616915b82811015620004aa5788860151825594840194600190910190840162000489565b5085821015620004c95787850151600019600388901b60f8161c191681555b5050505050600190811b01905550565b6020815260008251806020840152620004fa8160408501602087016200025d565b601f01601f19169190910160400192915050565b80516020808301519190811015620003b45760001960209190910360031b1b16919050565b60805160a05160c05160e051610100516101205161014051611f066200058e600039600061059d01526000610572015260006110b90152600061109101526000610fec01526000611016015260006110400152611f066000f3fe608060405234801561001057600080fd5b50600436106101825760003560e01c806384b0196e116100d8578063a9059cbb1161008c578063dd62ed3e11610066578063dd62ed3e14610327578063f2fde38b1461036d578063f46eccc41461038057600080fd5b8063a9059cbb146102ee578063cf456ae714610301578063d505accf1461031457600080fd5b806395d89b41116100bd57806395d89b41146102c05780639dc29fac146102c8578063a457c2d7146102db57600080fd5b806384b0196e1461027d5780638da5cb5b1461029857600080fd5b80633644e5151161013a57806370a082311161011457806370a082311461022c578063715018a6146102625780637ecebe001461026a57600080fd5b80633644e515146101fc578063395093511461020457806340c10f191461021757600080fd5b806318160ddd1161016b57806318160ddd146101c857806323b872dd146101da578063313ce567146101ed57600080fd5b806306fdde0314610187578063095ea7b3146101a5575b600080fd5b61018f6103a3565b60405161019c91906119dc565b60405180910390f35b6101b86101b3366004611a1f565b610435565b604051901515815260200161019c565b6002545b60405190815260200161019c565b6101b86101e8366004611a49565b61044f565b6040516012815260200161019c565b6101cc610473565b6101b8610212366004611a1f565b610482565b61022a610225366004611a1f565b6104ce565b005b6101cc61023a366004611a85565b73ffffffffffffffffffffffffffffffffffffffff1660009081526020819052604090205490565b61022a610525565b6101cc610278366004611a85565b610539565b610285610564565b60405161019c9796959493929190611aa0565b60095460405173ffffffffffffffffffffffffffffffffffffffff909116815260200161019c565b61018f610609565b61022a6102d6366004611a1f565b610618565b6101b86102e9366004611a1f565b61066b565b6101b86102fc366004611a1f565b610741565b61022a61030f366004611b5f565b61074f565b61022a610322366004611b9b565b61082e565b6101cc610335366004611c0e565b73ffffffffffffffffffffffffffffffffffffffff918216600090815260016020908152604080832093909416825291909152205490565b61022a61037b366004611a85565b6109ed565b6101b861038e366004611a85565b600a6020526000908152604090205460ff1681565b6060600380546103b290611c41565b80601f01602080910402602001604051908101604052809291908181526020018280546103de90611c41565b801561042b5780601f106104005761010080835404028352916020019161042b565b820191906000526020600020905b81548152906001019060200180831161040e57829003601f168201915b5050505050905090565b600033610443818585610ad8565b60019150505b92915050565b60003361045d858285610c8c565b610468858585610d63565b506001949350505050565b600061047d610fd2565b905090565b33600081815260016020908152604080832073ffffffffffffffffffffffffffffffffffffffff8716845290915281205490919061044390829086906104c9908790611c8e565b610ad8565b336000908152600a602052604090205460ff16610517576040517ff8d2906c00000000000000000000000000000000000000000000000000000000815260040160405180910390fd5b610521828261110a565b5050565b61052d6111fd565b610537600061127e565b565b73ffffffffffffffffffffffffffffffffffffffff8116600090815260076020526040812054610449565b6000606080828080836105987f000000000000000000000000000000000000000000000000000000000000000060056112f5565b6105c37f000000000000000000000000000000000000000000000000000000000000000060066112f5565b604080516000808252602082019092527f0f000000000000000000000000000000000000000000000000000000000000009b939a50919850469750309650945092509050565b6060600480546103b290611c41565b336000908152600a602052604090205460ff16610661576040517ff8d2906c00000000000000000000000000000000000000000000000000000000815260040160405180910390fd5b6105218282611399565b33600081815260016020908152604080832073ffffffffffffffffffffffffffffffffffffffff8716845290915281205490919083811015610734576040517f08c379a000000000000000000000000000000000000000000000000000000000815260206004820152602560248201527f45524332303a2064656372656173656420616c6c6f77616e63652062656c6f7760448201527f207a65726f00000000000000000000000000000000000000000000000000000060648201526084015b60405180910390fd5b6104688286868403610ad8565b600033610443818585610d63565b6107576111fd565b73ffffffffffffffffffffffffffffffffffffffff82166107a4576040517fe6c4247b00000000000000000000000000000000000000000000000000000000815260040160405180910390fd5b73ffffffffffffffffffffffffffffffffffffffff82166000818152600a602090815260409182902080547fffffffffffffffffffffffffffffffffffffffffffffffffffffffffffffff001685151590811790915591519182527f583b0aa0e528532caf4b907c11d7a8158a122fe2a6fb80cd9b09776ebea8d92d910160405180910390a25050565b83421115610898576040517f08c379a000000000000000000000000000000000000000000000000000000000815260206004820152601d60248201527f45524332305065726d69743a206578706972656420646561646c696e65000000604482015260640161072b565b60007f6e71edae12b1b97f4d1f60370fef10105fa2faae0126114a169c64845d6126c98888886108c78c61155a565b60408051602081019690965273ffffffffffffffffffffffffffffffffffffffff94851690860152929091166060840152608083015260a082015260c0810186905260e001604051602081830303815290604052805190602001209050600061092f8261158f565b9050600061093f828787876115d7565b90508973ffffffffffffffffffffffffffffffffffffffff168173ffffffffffffffffffffffffffffffffffffffff16146109d6576040517f08c379a000000000000000000000000000000000000000000000000000000000815260206004820152601e60248201527f45524332305065726d69743a20696e76616c6964207369676e61747572650000604482015260640161072b565b6109e18a8a8a610ad8565b50505050505050505050565b6109f56111fd565b73ffffffffffffffffffffffffffffffffffffffff8116610a98576040517f08c379a000000000000000000000000000000000000000000000000000000000815260206004820152602660248201527f4f776e61626c653a206e6577206f776e657220697320746865207a65726f206160448201527f6464726573730000000000000000000000000000000000000000000000000000606482015260840161072b565b610aa18161127e565b50565b6000602083511015610ac057610ab9836115ff565b9050610449565b81610acb8482611d45565b5060ff9050610449565b90565b73ffffffffffffffffffffffffffffffffffffffff8316610b7a576040517f08c379a0000000000000000000000000000000000000000000000000000000008152602060048201526024808201527f45524332303a20617070726f76652066726f6d20746865207a65726f2061646460448201527f7265737300000000000000000000000000000000000000000000000000000000606482015260840161072b565b73ffffffffffffffffffffffffffffffffffffffff8216610c1d576040517f08c379a000000000000000000000000000000000000000000000000000000000815260206004820152602260248201527f45524332303a20617070726f766520746f20746865207a65726f20616464726560448201527f7373000000000000000000000000000000000000000000000000000000000000606482015260840161072b565b73ffffffffffffffffffffffffffffffffffffffff83811660008181526001602090815260408083209487168084529482529182902085905590518481527f8c5be1e5ebec7d5bd14f71427d1e84f3dd0314c0f7b2291e5b200ac8c7c3b92591015b60405180910390a3505050565b73ffffffffffffffffffffffffffffffffffffffff8381166000908152600160209081526040808320938616835292905220547fffffffffffffffffffffffffffffffffffffffffffffffffffffffffffffffff8114610d5d5781811015610d50576040517f08c379a000000000000000000000000000000000000000000000000000000000815260206004820152601d60248201527f45524332303a20696e73756666696369656e7420616c6c6f77616e6365000000604482015260640161072b565b610d5d8484848403610ad8565b50505050565b73ffffffffffffffffffffffffffffffffffffffff8316610e06576040517f08c379a000000000000000000000000000000000000000000000000000000000815260206004820152602560248201527f45524332303a207472616e736665722066726f6d20746865207a65726f20616460448201527f6472657373000000000000000000000000000000000000000000000000000000606482015260840161072b565b73ffffffffffffffffffffffffffffffffffffffff8216610ea9576040517f08c379a000000000000000000000000000000000000000000000000000000000815260206004820152602360248201527f45524332303a207472616e7366657220746f20746865207a65726f206164647260448201527f6573730000000000000000000000000000000000000000000000000000000000606482015260840161072b565b73ffffffffffffffffffffffffffffffffffffffff831660009081526020819052604090205481811015610f5f576040517f08c379a000000000000000000000000000000000000000000000000000000000815260206004820152602660248201527f45524332303a207472616e7366657220616d6f756e742065786365656473206260448201527f616c616e63650000000000000000000000000000000000000000000000000000606482015260840161072b565b73ffffffffffffffffffffffffffffffffffffffff848116600081815260208181526040808320878703905593871680835291849020805487019055925185815290927fddf252ad1be2c89b69c2b068fc378daa952ba7f163c4a11628f55a4df523b3ef910160405180910390a3610d5d565b60003073ffffffffffffffffffffffffffffffffffffffff7f00000000000000000000000000000000000000000000000000000000000000001614801561103857507f000000000000000000000000000000000000000000000000000000000000000046145b1561106257507f000000000000000000000000000000000000000000000000000000000000000090565b61047d604080517f8b73c3c69bb8fe3d512ecc4cf759cc79239f7b179b0ffacaa9a75d522b39400f60208201527f0000000000000000000000000000000000000000000000000000000000000000918101919091527f000000000000000000000000000000000000000000000000000000000000000060608201524660808201523060a082015260009060c00160405160208183030381529060405280519060200120905090565b73ffffffffffffffffffffffffffffffffffffffff8216611187576040517f08c379a000000000000000000000000000000000000000000000000000000000815260206004820152601f60248201527f45524332303a206d696e7420746f20746865207a65726f206164647265737300604482015260640161072b565b80600260008282546111999190611c8e565b909155505073ffffffffffffffffffffffffffffffffffffffff8216600081815260208181526040808320805486019055518481527fddf252ad1be2c89b69c2b068fc378daa952ba7f163c4a11628f55a4df523b3ef910160405180910390a35050565b60095473ffffffffffffffffffffffffffffffffffffffff163314610537576040517f08c379a000000000000000000000000000000000000000000000000000000000815260206004820181905260248201527f4f776e61626c653a2063616c6c6572206973206e6f7420746865206f776e6572604482015260640161072b565b6009805473ffffffffffffffffffffffffffffffffffffffff8381167fffffffffffffffffffffffff0000000000000000000000000000000000000000831681179093556040519116919082907f8be0079c531659141344cd1fd0a4f28419497f9722a3daafe3b4186f6b6457e090600090a35050565b606060ff831461130857610ab983611656565b81805461131490611c41565b80601f016020809104026020016040519081016040528092919081815260200182805461134090611c41565b801561138d5780601f106113625761010080835404028352916020019161138d565b820191906000526020600020905b81548152906001019060200180831161137057829003601f168201915b50505050509050610449565b73ffffffffffffffffffffffffffffffffffffffff821661143c576040517f08c379a000000000000000000000000000000000000000000000000000000000815260206004820152602160248201527f45524332303a206275726e2066726f6d20746865207a65726f2061646472657360448201527f7300000000000000000000000000000000000000000000000000000000000000606482015260840161072b565b73ffffffffffffffffffffffffffffffffffffffff8216600090815260208190526040902054818110156114f2576040517f08c379a000000000000000000000000000000000000000000000000000000000815260206004820152602260248201527f45524332303a206275726e20616d6f756e7420657863656564732062616c616e60448201527f6365000000000000000000000000000000000000000000000000000000000000606482015260840161072b565b73ffffffffffffffffffffffffffffffffffffffff83166000818152602081815260408083208686039055600280548790039055518581529192917fddf252ad1be2c89b69c2b068fc378daa952ba7f163c4a11628f55a4df523b3ef9101610c7f565b505050565b73ffffffffffffffffffffffffffffffffffffffff811660009081526007602052604090208054600181018255905b50919050565b600061044961159c610fd2565b836040517f19010000000000000000000000000000000000000000000000000000000000008152600281019290925260228201526042902090565b60008060006115e887878787611695565b915091506115f581611784565b5095945050505050565b600080829050601f8151111561164357826040517f305a27a900000000000000000000000000000000000000000000000000000000815260040161072b91906119dc565b805161164e82611e5f565b179392505050565b6060600061166383611937565b604080516020808252818301909252919250600091906020820181803683375050509182525060208101929092525090565b6000807f7fffffffffffffffffffffffffffffff5d576e7357a4501ddfe92f46681b20a08311156116cc575060009050600361177b565b6040805160008082526020820180845289905260ff881692820192909252606081018690526080810185905260019060a0016020604051602081039080840390855afa158015611720573d6000803e3d6000fd5b50506040517fffffffffffffffffffffffffffffffffffffffffffffffffffffffffffffffe0015191505073ffffffffffffffffffffffffffffffffffffffff81166117745760006001925092505061177b565b9150600090505b94509492505050565b600081600481111561179857611798611ea1565b036117a05750565b60018160048111156117b4576117b4611ea1565b0361181b576040517f08c379a000000000000000000000000000000000000000000000000000000000815260206004820152601860248201527f45434453413a20696e76616c6964207369676e61747572650000000000000000604482015260640161072b565b600281600481111561182f5761182f611ea1565b03611896576040517f08c379a000000000000000000000000000000000000000000000000000000000815260206004820152601f60248201527f45434453413a20696e76616c6964207369676e6174757265206c656e67746800604482015260640161072b565b60038160048111156118aa576118aa611ea1565b03610aa1576040517f08c379a000000000000000000000000000000000000000000000000000000000815260206004820152602260248201527f45434453413a20696e76616c6964207369676e6174757265202773272076616c60448201527f7565000000000000000000000000000000000000000000000000000000000000606482015260840161072b565b600060ff8216601f811115610449576040517fb3512b0c00000000000000000000000000000000000000000000000000000000815260040160405180910390fd5b6000815180845260005b8181101561199e57602081850181015186830182015201611982565b5060006020828601015260207fffffffffffffffffffffffffffffffffffffffffffffffffffffffffffffffe0601f83011685010191505092915050565b6020815260006119ef6020830184611978565b9392505050565b803573ffffffffffffffffffffffffffffffffffffffff81168114611a1a57600080fd5b919050565b60008060408385031215611a3257600080fd5b611a3b836119f6565b946020939093013593505050565b600080600060608486031215611a5e57600080fd5b611a67846119f6565b9250611a75602085016119f6565b9150604084013590509250925092565b600060208284031215611a9757600080fd5b6119ef826119f6565b7fff00000000000000000000000000000000000000000000000000000000000000881681526000602060e081840152611adc60e084018a611978565b8381036040850152611aee818a611978565b6060850189905273ffffffffffffffffffffffffffffffffffffffff8816608086015260a0850187905284810360c0860152855180825283870192509083019060005b81811015611b4d57835183529284019291840191600101611b31565b50909c9b505050505050505050505050565b60008060408385031215611b7257600080fd5b611b7b836119f6565b915060208301358015158114611b9057600080fd5b809150509250929050565b600080600080600080600060e0888a031215611bb657600080fd5b611bbf886119f6565b9650611bcd602089016119f6565b95506040880135945060608801359350608088013560ff81168114611bf157600080fd5b9699959850939692959460a0840135945060c09093013592915050565b60008060408385031215611c2157600080fd5b611c2a836119f6565b9150611c38602084016119f6565b90509250929050565b600181811c90821680611c5557607f821691505b602082108103611589577f4e487b7100000000000000000000000000000000000000000000000000000000600052602260045260246000fd5b80820180821115610449577f4e487b7100000000000000000000000000000000000000000000000000000000600052601160045260246000fd5b7f4e487b7100000000000000000000000000000000000000000000000000000000600052604160045260246000fd5b601f82111561155557600081815260208120601f850160051c81016020861015611d1e5750805b601f850160051c820191505b81811015611d3d57828155600101611d2a565b505050505050565b815167ffffffffffffffff811115611d5f57611d5f611cc8565b611d7381611d6d8454611c41565b84611cf7565b602080601f831160018114611dc65760008415611d905750858301515b7fffffffffffffffffffffffffffffffffffffffffffffffffffffffffffffffff600386901b1c1916600185901b178555611d3d565b6000858152602081207fffffffffffffffffffffffffffffffffffffffffffffffffffffffffffffffe08616915b82811015611e1357888601518255948401946001909101908401611df4565b5085821015611e4f57878501517fffffffffffffffffffffffffffffffffffffffffffffffffffffffffffffffff600388901b60f8161c191681555b5050505050600190811b01905550565b80516020808301519190811015611589577fffffffffffffffffffffffffffffffffffffffffffffffffffffffffffffffff60209190910360031b1b16919050565b7f4e487b7100000000000000000000000000000000000000000000000000000000600052602160045260246000fdfea2646970667358221220421ec12104054f6827f04470fb0e37597ebea9912f9186adc80d48e5dc6518d164736f6c63430008120033",
  "linkReferences": {},
  "deployedLinkReferences": {}
}