{
  "_format": "hh-sol-artifact-1",
  "contractName": "TomcatLaunchVault",
  "sourceName": "contracts/launch/TomcatLaunchVault.sol",
  "abi": [
    {
      "inputs": [
        {
          "internalType": "address",
          "name": "_mavToken",
          "type": "address"
        },
        {
          "internalType": "address",
          "name": "_tcMavToken",
          "type": "address"
        },
        {
          "internalType": "uint256",
          "name": "_closingTimestamp",
          "type": "uint256"
        }
      ],
      "stateMutability": "nonpayable",
      "type": "constructor"
    },
    {
      "inputs": [],
      "name": "InvalidAddress",
      "type": "error"
    },
    {
      "inputs": [],
      "name": "InvalidAmount",
      "type": "error"
    },
    {
      "inputs": [],
      "name": "LockerAlreadySet",
      "type": "error"
    },
    {
      "inputs": [],
      "name": "VaultClosed",
      "type": "error"
    },
    {
      "inputs": [],
      "name": "VaultNotClosed",
      "type": "error"
    },
    {
      "anonymous": false,
      "inputs": [
        {
          "indexed": false,
          "internalType": "uint256",
          "name": "timestamp",
          "type": "uint256"
        }
      ],
      "name": "ClosingTimestampExtended",
      "type": "event"
    },
    {
      "anonymous": false,
      "inputs": [
        {
          "indexed": true,
          "internalType": "address",
          "name": "locker",
          "type": "address"
        }
      ],
      "name": "LockerSet",
      "type": "event"
    },
    {
      "anonymous": false,
      "inputs": [
        {
          "indexed": false,
          "internalType": "uint256",
          "name": "amount",
          "type": "uint256"
        }
      ],
      "name": "MavLocked",
      "type": "event"
    },
    {
      "anonymous": false,
      "inputs": [
        {
          "indexed": true,
          "internalType": "address",
          "name": "previousOwner",
          "type": "address"
        },
        {
          "indexed": true,
          "internalType": "address",
          "name": "newOwner",
          "type": "address"
        }
      ],
      "name": "OwnershipTransferred",
      "type": "event"
    },
    {
      "anonymous": false,
      "inputs": [
        {
          "indexed": true,
          "internalType": "address",
          "name": "account",
          "type": "address"
        },
        {
          "indexed": false,
          "internalType": "uint256",
          "name": "amount",
          "type": "uint256"
        }
      ],
      "name": "Stake",
      "type": "event"
    },
    {
      "anonymous": false,
      "inputs": [
        {
          "indexed": true,
          "internalType": "address",
          "name": "account",
          "type": "address"
        },
        {
          "indexed": false,
          "internalType": "uint256",
          "name": "amount",
          "type": "uint256"
        }
      ],
      "name": "Unstake",
      "type": "event"
    },
    {
      "inputs": [],
      "name": "closingTimestamp",
      "outputs": [
        {
          "internalType": "uint256",
          "name": "",
          "type": "uint256"
        }
      ],
      "stateMutability": "view",
      "type": "function"
    },
    {
      "inputs": [
        {
          "internalType": "uint256",
          "name": "_timestamp",
          "type": "uint256"
        }
      ],
      "name": "extendClosingTimestamp",
      "outputs": [],
      "stateMutability": "nonpayable",
      "type": "function"
    },
    {
      "inputs": [],
      "name": "lockMav",
      "outputs": [],
      "stateMutability": "nonpayable",
      "type": "function"
    },
    {
      "inputs": [],
      "name": "locker",
      "outputs": [
        {
          "internalType": "contract ITomcatLaunchLocker",
          "name": "",
          "type": "address"
        }
      ],
      "stateMutability": "view",
      "type": "function"
    },
    {
      "inputs": [],
      "name": "mavToken",
      "outputs": [
        {
          "internalType": "contract IERC20",
          "name": "",
          "type": "address"
        }
      ],
      "stateMutability": "view",
      "type": "function"
    },
    {
      "inputs": [],
      "name": "owner",
      "outputs": [
        {
          "internalType": "address",
          "name": "",
          "type": "address"
        }
      ],
      "stateMutability": "view",
      "type": "function"
    },
    {
      "inputs": [],
      "name": "renounceOwnership",
      "outputs": [],
      "stateMutability": "nonpayable",
      "type": "function"
    },
    {
      "inputs": [
        {
          "internalType": "address",
          "name": "_locker",
          "type": "address"
        }
      ],
      "name": "setLocker",
      "outputs": [],
      "stateMutability": "nonpayable",
      "type": "function"
    },
    {
      "inputs": [
        {
          "internalType": "uint256",
          "name": "_amount",
          "type": "uint256"
        }
      ],
      "name": "stake",
      "outputs": [],
      "stateMutability": "nonpayable",
      "type": "function"
    },
    {
      "inputs": [],
      "name": "tcMavToken",
      "outputs": [
        {
          "internalType": "contract ITcMav",
          "name": "",
          "type": "address"
        }
      ],
      "stateMutability": "view",
      "type": "function"
    },
    {
      "inputs": [
        {
          "internalType": "address",
          "name": "newOwner",
          "type": "address"
        }
      ],
      "name": "transferOwnership",
      "outputs": [],
      "stateMutability": "nonpayable",
      "type": "function"
    },
    {
      "inputs": [
        {
          "internalType": "uint256",
          "name": "_amount",
          "type": "uint256"
        }
      ],
      "name": "unstake",
      "outputs": [],
      "stateMutability": "nonpayable",
      "type": "function"
    }
  ],
  "bytecode": "0x60c060405234801561001057600080fd5b5060405161133238038061133283398101604081905261002f916100bf565b61003833610053565b6001600160a01b03928316608052911660a0526001556100fb565b600080546001600160a01b038381166001600160a01b0319831681178455604051919092169283917f8be0079c531659141344cd1fd0a4f28419497f9722a3daafe3b4186f6b6457e09190a35050565b80516001600160a01b03811681146100ba57600080fd5b919050565b6000806000606084860312156100d457600080fd5b6100dd846100a3565b92506100eb602085016100a3565b9150604084015190509250925092565b60805160a0516111e861014a6000396000818161017c0152818161049b01526106880152600081816101de015281816105260152818161062b015281816107c001526108cd01526111e86000f3fe608060405234801561001057600080fd5b50600436106100d45760003560e01c806394f5e22711610081578063d7b96d4e1161005b578063d7b96d4e146101b9578063ecb96200146101d9578063f2fde38b1461020057600080fd5b806394f5e22714610177578063a694fc3a1461019e578063c41e155e146101b157600080fd5b806333240587116100b25780633324058714610114578063715018a6146101305780638da5cb5b1461013857600080fd5b8063171060ec146100d95780631884887e146100ee5780632e17de7814610101575b600080fd5b6100ec6100e7366004611050565b610213565b005b6100ec6100fc36600461108d565b610340565b6100ec61010f36600461108d565b6103bb565b61011d60015481565b6040519081526020015b60405180910390f35b6100ec610552565b60005473ffffffffffffffffffffffffffffffffffffffff165b60405173ffffffffffffffffffffffffffffffffffffffff9091168152602001610127565b6101527f000000000000000000000000000000000000000000000000000000000000000081565b6100ec6101ac36600461108d565b610566565b6100ec6106fd565b6002546101529073ffffffffffffffffffffffffffffffffffffffff1681565b6101527f000000000000000000000000000000000000000000000000000000000000000081565b6100ec61020e366004611050565b61094d565b61021b610a06565b73ffffffffffffffffffffffffffffffffffffffff8116610268576040517fe6c4247b00000000000000000000000000000000000000000000000000000000815260040160405180910390fd5b60025473ffffffffffffffffffffffffffffffffffffffff16156102b8576040517f1aa5264b00000000000000000000000000000000000000000000000000000000815260040160405180910390fd5b60405173ffffffffffffffffffffffffffffffffffffffff8216907fef7ce00901486d0ae4bbe00a818eb6bb2f42bc78fc75571cf294c1c50c61adfd90600090a2600280547fffffffffffffffffffffffff00000000000000000000000000000000000000001673ffffffffffffffffffffffffffffffffffffffff92909216919091179055565b610348610a06565b6001548111610383576040517f2c5211c600000000000000000000000000000000000000000000000000000000815260040160405180910390fd5b6040518181527fc139b2aa35d0d731760b429f6536aeae42477fe633d9256e04fb5e28cd9473cb9060200160405180910390a1600155565b806000036103f5576040517f2c5211c600000000000000000000000000000000000000000000000000000000815260040160405180910390fd5b600154421115610431576040517fdf23397a00000000000000000000000000000000000000000000000000000000815260040160405180910390fd5b60405181815233907f85082129d87b2fe11527cb1b3b7a520aeb5aa6913f88a3d8757fe40d1db02fdd9060200160405180910390a26040517f9dc29fac000000000000000000000000000000000000000000000000000000008152336004820152602481018290527f000000000000000000000000000000000000000000000000000000000000000073ffffffffffffffffffffffffffffffffffffffff1690639dc29fac90604401600060405180830381600087803b1580156104f457600080fd5b505af1158015610508573d6000803e3d6000fd5b5061054f92505073ffffffffffffffffffffffffffffffffffffffff7f00000000000000000000000000000000000000000000000000000000000000001690503383610a87565b50565b61055a610a06565b6105646000610b60565b565b806000036105a0576040517f2c5211c600000000000000000000000000000000000000000000000000000000815260040160405180910390fd5b6001544211156105dc576040517fdf23397a00000000000000000000000000000000000000000000000000000000815260040160405180910390fd5b60405181815233907febedb8b3c678666e7f36970bc8f57abf6d8fa2e828c0da91ea5b75bf68ed101a9060200160405180910390a261065373ffffffffffffffffffffffffffffffffffffffff7f000000000000000000000000000000000000000000000000000000000000000016333084610bd5565b6040517f40c10f19000000000000000000000000000000000000000000000000000000008152336004820152602481018290527f000000000000000000000000000000000000000000000000000000000000000073ffffffffffffffffffffffffffffffffffffffff16906340c10f19906044015b600060405180830381600087803b1580156106e257600080fd5b505af11580156106f6573d6000803e3d6000fd5b5050505050565b610705610a06565b6001544211610740576040517f4787d29a00000000000000000000000000000000000000000000000000000000815260040160405180910390fd5b60025473ffffffffffffffffffffffffffffffffffffffff1661078f576040517fe6c4247b00000000000000000000000000000000000000000000000000000000815260040160405180910390fd5b6040517f70a082310000000000000000000000000000000000000000000000000000000081523060048201526000907f000000000000000000000000000000000000000000000000000000000000000073ffffffffffffffffffffffffffffffffffffffff16906370a0823190602401602060405180830381865afa15801561081c573d6000803e3d6000fd5b505050506040513d601f19601f8201168201806040525081019061084091906110a6565b90508060000361087c576040517f2c5211c600000000000000000000000000000000000000000000000000000000815260040160405180910390fd5b6040518181527f282847cda1f27ebe346ea7abc990511c4ba6e829f2d2b710a645b1596ac31a6d9060200160405180910390a16002546108f69073ffffffffffffffffffffffffffffffffffffffff7f00000000000000000000000000000000000000000000000000000000000000008116911683610c39565b6002546040517fdd4670640000000000000000000000000000000000000000000000000000000081526004810183905273ffffffffffffffffffffffffffffffffffffffff9091169063dd467064906024016106c8565b610955610a06565b73ffffffffffffffffffffffffffffffffffffffff81166109fd576040517f08c379a000000000000000000000000000000000000000000000000000000000815260206004820152602660248201527f4f776e61626c653a206e6577206f776e657220697320746865207a65726f206160448201527f646472657373000000000000000000000000000000000000000000000000000060648201526084015b60405180910390fd5b61054f81610b60565b60005473ffffffffffffffffffffffffffffffffffffffff163314610564576040517f08c379a000000000000000000000000000000000000000000000000000000000815260206004820181905260248201527f4f776e61626c653a2063616c6c6572206973206e6f7420746865206f776e657260448201526064016109f4565b60405173ffffffffffffffffffffffffffffffffffffffff8316602482015260448101829052610b5b9084907fa9059cbb00000000000000000000000000000000000000000000000000000000906064015b604080517fffffffffffffffffffffffffffffffffffffffffffffffffffffffffffffffe08184030181529190526020810180517bffffffffffffffffffffffffffffffffffffffffffffffffffffffff167fffffffff0000000000000000000000000000000000000000000000000000000090931692909217909152610d32565b505050565b6000805473ffffffffffffffffffffffffffffffffffffffff8381167fffffffffffffffffffffffff0000000000000000000000000000000000000000831681178455604051919092169283917f8be0079c531659141344cd1fd0a4f28419497f9722a3daafe3b4186f6b6457e09190a35050565b60405173ffffffffffffffffffffffffffffffffffffffff80851660248301528316604482015260648101829052610c339085907f23b872dd0000000000000000000000000000000000000000000000000000000090608401610ad9565b50505050565b6040517fdd62ed3e00000000000000000000000000000000000000000000000000000000815230600482015273ffffffffffffffffffffffffffffffffffffffff83811660248301526000919085169063dd62ed3e90604401602060405180830381865afa158015610caf573d6000803e3d6000fd5b505050506040513d601f19601f82011682018060405250810190610cd391906110a6565b9050610c33847f095ea7b30000000000000000000000000000000000000000000000000000000085610d0586866110bf565b60405173ffffffffffffffffffffffffffffffffffffffff90921660248301526044820152606401610ad9565b6000610d94826040518060400160405280602081526020017f5361666545524332303a206c6f772d6c6576656c2063616c6c206661696c65648152508573ffffffffffffffffffffffffffffffffffffffff16610e419092919063ffffffff16565b9050805160001480610db5575080806020019051810190610db591906110ff565b610b5b576040517f08c379a000000000000000000000000000000000000000000000000000000000815260206004820152602a60248201527f5361666545524332303a204552433230206f7065726174696f6e20646964206e60448201527f6f7420737563636565640000000000000000000000000000000000000000000060648201526084016109f4565b6060610e508484600085610e58565b949350505050565b606082471015610eea576040517f08c379a000000000000000000000000000000000000000000000000000000000815260206004820152602660248201527f416464726573733a20696e73756666696369656e742062616c616e636520666f60448201527f722063616c6c000000000000000000000000000000000000000000000000000060648201526084016109f4565b6000808673ffffffffffffffffffffffffffffffffffffffff168587604051610f139190611145565b60006040518083038185875af1925050503d8060008114610f50576040519150601f19603f3d011682016040523d82523d6000602084013e610f55565b606091505b5091509150610f6687838387610f71565b979650505050505050565b606083156110075782516000036110005773ffffffffffffffffffffffffffffffffffffffff85163b611000576040517f08c379a000000000000000000000000000000000000000000000000000000000815260206004820152601d60248201527f416464726573733a2063616c6c20746f206e6f6e2d636f6e747261637400000060448201526064016109f4565b5081610e50565b610e50838381511561101c5781518083602001fd5b806040517f08c379a00000000000000000000000000000000000000000000000000000000081526004016109f49190611161565b60006020828403121561106257600080fd5b813573ffffffffffffffffffffffffffffffffffffffff8116811461108657600080fd5b9392505050565b60006020828403121561109f57600080fd5b5035919050565b6000602082840312156110b857600080fd5b5051919050565b808201808211156110f9577f4e487b7100000000000000000000000000000000000000000000000000000000600052601160045260246000fd5b92915050565b60006020828403121561111157600080fd5b8151801515811461108657600080fd5b60005b8381101561113c578181015183820152602001611124565b50506000910152565b60008251611157818460208701611121565b9190910192915050565b6020815260008251806020840152611180816040850160208701611121565b601f017fffffffffffffffffffffffffffffffffffffffffffffffffffffffffffffffe016919091016040019291505056fea2646970667358221220735e768660114a5efa083ee233e45f533ae1da20dcd8498b6fe91263bc58b63864736f6c63430008120033",
  "linkReferences": {},
  "deployedLinkReferences": {}
}